:200000000C942A010C9452010C9452010C9452010C9452010C9452010C9452010C94520170
:200020000C9452010C9452010C9452010C9452010C9452010C9452010C9452010C94520128
:200040000C9442120C9452010C9410120C94EA110C9452010C9452010C9452010C94520190
:200060000C9452010C94520100000000250028002B000000000023002600290000000008A8
:200080000002010000030407000000000000000000000000240027002A000102040810209B
:2000A0004080010204081020010204081020040404040404040402020202020203030303CA
:2000C0000303EF0E190E4E0D8D0CDA0B2F0B8F0AF7096809E1086108E90777070C07A70659
:2000E0004706ED0598054705FC04B40470043104F403BC03860353032403F602CC02A4024F
:200100007E025A0238021802FA01DE01C301AA0192017B01660152013F012D011C010C0105
:20012000FD00EF00E100D500C900BE00B300A9009F0096008E0086007F00770071006A0020
:2001400064005F005900540050004B00470043003F003C003800350032002F002D002A006A
:20016000280026002400220020001E001C001B0019001800160015001400130012001100D0
:2001800010000F000E000D000D000C000B000B000A000900090008000800534420496E69F3
:2001A0007469616C697A6174696F6E204661696C65643A2070726F6772616D2073746F70FA
:2001C0007065642E0000507265737320627574746F6E20746F20616476616E636520746FF7
:2001E000206E65787420736F6E67206F6E20534420636172642E0041592D332D383931786C
:2002000020536F756E642043686970204C6962726172792044656D6F3A2053696D706C65B3
:2002200020746F6E65732F6E6F69736520616E6420594D2066696C6520706C617965722E74
:2002400000007C3C3E5E2B3D3F2F5B5D3B2C2A225C008C1211241FBECFEFD8E0DEBFCDBF5E
:2002600012E0A0E0B1E0EAEBF6E302C005900D92A630B107D9F725E0A6E0B2E001C01D92EC
:20028000A535B207E1F711E0CAE2D1E004C02197FE010E94EC19C932D107C9F70E940F132C
:2002A0000C945B1B0C940000AF92BF92CF92DF92EF92FF920F931F93CF93DF936C017B0101
:2002C0008B01040F151FEB015E01AE18BF08C017D10759F06991D601ED91FC910190F0819D
:2002E000E02DC6010995892B79F7C501DF91CF911F910F91FF90EF90DF90CF90BF90AF9018
:200300000895FC01538D448D252F30E0842F90E0821B930B541710F0CF960895019708952E
:20032000FC01918D828D981761F0A28DAE0FBF2FB11D5D968C91928D9F5F9F73928F90E01B
:2003400008958FEF9FEF0895FC01918D828D981731F0828DE80FF11D858D90E008958FEFAC
:200360009FEF0895FC01918D228D892F90E0805C9F4F821B91098F739927089583E294E027
:200380000E94B20121E0892B09F420E0822F089580E090E0892B29F00E94BE0181110C94D8
:2003A00000000895FC01A48DA80FB92FB11DA35ABF4F2C91848D90E001968F739927848F50
:2003C000A689B7892C93A089B1898C91837080648C93938D848D981306C00288F389E02DC4
:2003E00080818F7D80830895EF92FF920F931F93CF93DF93EC0181E0888F9B8D8C8D9813C5
:200400001AC0E889F989808185FF15C09FB7F894EE89FF896083E889F98980818370806426
:2004200080839FBF81E090E0DF91CF911F910F91FF90EF900895F62E0B8D10E00F5F1F4F37
:200440000F731127E02E8C8D8E110CC00FB607FCFACFE889F989808185FFF5CFCE010E9412
:20046000D201F1CFEB8DEC0FFD2FF11DE35AFF4FF0829FB7F8940B8FEA89FB8980818062E9
:20048000CFCFCF93DF93EC01888D8823B9F0AA89BB89E889F9898C9185FD03C0808186FD44
:2004A0000DC00FB607FCF7CF8C9185FFF2CF808185FFEDCFCE010E94D201E9CFDF91CF9172
:2004C0000895833081F028F4813099F08230A9F008958730A9F08830C9F08430B1F48091F2
:2004E00080008F7D03C0809180008F7780938000089584B58F7784BD089584B58F7DFBCFBA
:200500008091B0008F778093B00008958091B0008F7DF9CFCF93DF93282F30E0F901E458AE
:20052000FF4F8491F901E656FF4FD491F901E255FF4FC491CC23A1F081110E946102EC2F69
:20054000F0E0EE0FFF1FEE58FF4FA591B491EC91ED2381E090E009F480E0DF91CF91089579
:2005600080E090E0FACF1F93CF93DF93282F30E0F901E458FF4F8491F901E656FF4FD49173
:20058000F901E255FF4FC491CC23A9F0162F81110E946102EC2FF0E0EE0FFF1FE859FF4F8E
:2005A000A591B4918FB7F894EC91111108C0D095DE23DC938FBFDF91CF911F910895DE2B3E
:2005C000F8CF982F80914905923049F198F49130D9F08F3F19F060E00E94B30280914A054E
:2005E00060E08F3FC9F480914B058F3F39F160E00C94B302933019F1943059F78F3F39F06A
:2006000061E00E94B30203C060E08F3FD1F780914A058F3F41F361E00E94B302E4CF8F3F2E
:2006200019F060E00E94B30280914A0560E08F3F81F480914B0561E08F3FD1F608958F3F95
:2006400019F060E00E94B30280914A058F3F89F361E00E94B302EDCFCF93DF9390E0FC01BB
:20066000E656FF4F249182559F4FFC0184918823C9F090E0880F991FFC01E057FF4FA59189
:20068000B491FC01E859FF4FC591D49161110DC09FB7F8948C91209582238C9388812823C3
:2006A00028839FBFDF91CF910895623051F49FB7F8943C91822F809583238C93E8812E2BF1
:2006C000EFCF8FB7F894EC912E2B2C938FBFEACFCF93DF93C1E4D5E089918F3F19F060E08F
:2006E0000E942C0385E0C934D807B1F7DF91CF910895FF920F931F93CF93DF93F82E01E40F
:2007000015E0E80189918F3F19F061E00E942C0385E0C934D807B1F7F80181918F018F3FA6
:2007200029F06F2D61700E94B302F694C017D10799F7DF91CF911F910F91FF900895CF9365
:20074000C82F80E00E94E102809150058C2B0E94790382E00E94E10280E0CF910C94E10258
:20076000EF92FF921F93CF93DF9387E00E949F030E94680381E00E94E10283E00E94E1025B
:2007800081E4E82E85E0F82ED0E0C0E010E0F70181917F010E948A020C2E01C0880F0A942B
:2007A000EAF7182B2196C830D10589F781E00E94E102812FDF91CF911F91FF90EF9008954F
:2007C000CF93C62F0E949F0381E00E94E1028C2F0E94790384E00E94E10281E00E94E102F0
:2007E000CF910C9468033FB7F8948091110290911202A0911302B091140226B5A89B05C033
:200800002F3F19F00196A11DB11D3FBFBA2FA92F982F8827BC01CD01620F711D811D911D33
:2008200042E0660F771F881F991F4A95D1F708958F929F92AF92BF92CF92DF92EF92FF9220
:200840004B015C010E94F3036B017C010E94F3036C197D098E099F09683E73408105910517
:20086000A8F321E0821A9108A108B10888EEC80E83E0D81EE11CF11C81149104A104B10412
:2008800029F7FF90EF90DF90CF90BF90AF909F908F9008952FB7F89460910D0270910E0260
:2008A00080910F02909110022FBF08958FB7F894809107028FBF089561E0FC0184810E949C
:2008C000B3028091060281111092060208958EBD00000DB407FEFDCF8EB508958FEF0C9496
:2008E00067040F931F93CF93DF93EC010E944A048B010E946E048F3F69F00E944A04601B56
:20090000710B6C177D07A8F380E0DF91CF911F910F91089581E0F9CF8CBD9DBD0895CF93D1
:20092000DF93EC0180910602811109C081E0809306028091C0049091C1040E948C0460E03B
:200940008C81DF91CF910C94B3028F929F92AF92BF92FF920F931F93CF93DF93EC01F62EB7
:2009600049015A018E81882389F08F8198859C012F5F3F4F38872F838230924018F40E9416
:200980006E04F3CFCE010E945C041E82CE010E948F048CE291E00E9471048F2D80640E9476
:2009A000670408E110E0D501C401002E04C0B695A795979587950A94D2F70E9467040850CB
:2009C0001109083F8FEF180771F785E9FF2021F028E087E8F2128FEF0E94670410E00E947B
:2009E0006E048A8787FF04C01F3F11F01F5FF7CFDF91CF911F910F91FF90BF90AF909F901B
:200A00008F900895AF92BF92CF92DF92EF92FF920F931F93CF93DF93EC016901C801820FCB
:200A2000931F8130924050F58E81882379F088819981AA81BB8184179507A607B70731F4C8
:200A40008F819885C816D90608F042C0488359836A837B838B85833039F089E0440F551F04
:200A6000661F771F8A95D1F79A01AB0161E1CE010E94A504882389F083E08D83CE010E94C9
:200A80005C0480E0DF91CF911F910F91FF90EF90DF90CF90BF90AF9008950E944A045B0123
:200AA0000E946E048A878F3F69F40E944A046A197B096D327140A0F38FE08D83CE010E941C
:200AC0005C04DCCF8E3F89F418861F8281E08E838F8198858C159D0550F40E946E048F8138
:200AE0009885019698878F83F3CF8DE0E6CF6701E00EF11E0E946E04F60181936F01EE1536
:200B0000FF05C1F78F819885080F191F18870F838985882319F001151240A0F08E818823F8
:200B200089F08F8198859C012F5F3F4F38872F838230924018F40E946E04F3CFCE010E940E
:200B40005C041E8281E09ECFCF92DF92EF92FF920F93CF93DF93EC01690182E14115510507
:200B60006105710599F08B85833039F089E0440F551F661F771F8A95D1F79A01AB0168E162
:200B8000CE010E94A504882319F084E08D832DC08EEF0E94670476018EEFD81AF7018191AC
:200BA0007F010E946704EC14FD04C1F78FEF0E9467048FEF0E9467040E946E048A878F71B4
:200BC000853071F4011116C0CE010E945C0481E0DF91CF910F91FF90EF90DF90CF900895F8
:200BE00081E18D83CE010E945C04CE010E945C0480E0EECF88E592E00E947104811102C07A
:200C000085E1C4CF20E030E0A9016DE0CE010E94A504882311F084E1B9CF0E946E0481117B
:200C2000FACFD2CF0F93409108025091090260910A0270910B02411551056105710599F0C5
:200C4000082F23E232E080912002909121020E94A405882349F010920802109209021092A5
:200C60000A0210920B0281E00F9108950F93CF93C82F80912202811105C0C1E08C2FCF91D8
:200C80000F910895409100015091010160910201709103010C2F23E232E0809120029091C3
:200CA00021020E94A405811102C0C0E0E7CFCC2321F381E00E9412068823B9F310922202E1
:200CC000DDCF8F929F92AF92BF92EF92FF920F931F93CF934B015C01C42F809100019091ED
:200CE0000101A0910201B091030188159905AA05BB0551F181E00E94360681110BC080E091
:200D0000CF911F910F91FF90EF90BF90AF909F908F90089583E2E82E82E0F82E00E012E0C7
:200D200030E020E0B501A40180912002909121020E940205882319F380920001909201013A
:200D4000A0920201B0920301409122024C2B4093220281E0D5CF8F929F92AF92BF92CF926B
:200D6000DF92EF92FF92CF9322EC34E03093210220932002882309F46DC040E060E070E02C
:200D8000CB010E94610681110BC080E0CF91FF90EF90DF90CF90BF90AF909F908F9008950C
:200DA0008091E1038F7789F78091ED039091EE03A091EF03B091F00384369105A105B105A2
:200DC00020F3C090E903D090EA03E090EB03F090EC03C114D104E104F104B9F240E0C70193
:200DE000B6010E946106882381F280912E0290912F028115924049F6A0913302AA2329F28D
:200E000060913102709132026115710509F4BDCF20913002222309F4B8CFA093E00420938E
:200E2000D20490E080E030E0E1E0F0E0C82FAF01082E02C0440F551F0A94E2F72417350717
:200E400069F041E0480F01968930910579F74093DB049BCFC12CD12C7601C0CF8093DB046D
:200E60002091390230913A0250E040E02115310541F4209147023091480240914902509196
:200E80004A022093D3043093D4044093D5045093D60446015701860E971EA11CB11C8092F4
:200EA000E1049092E204A092E304B092E404E0913402F0913502F093E704E093E604B0E048
:200EC0000E94E119DC01CB01880D991DAA1DBB1D8093E8049093E904A093EA04B093EB0481
:200EE00025E0EE0FFF1F2A95E1F7E150FE4FEF2FFF27E6958E0F9F1FA11DB11D8093DC0424
:200F00009093DD04A093DE04B093DF048090360290903702B12CA12C8114910441F48090D8
:200F2000430290904402A0904502B0904602C81AD90AEA0AFB0AC80CD91CEA1CFB1C04C09F
:200F4000F694E794D794C794CA95D2F7C092D704D092D804E092D904F092DA0485EFC81632
:200F60008FE0D806E104F10428F48CE08093E50481E00CCF80E125EFC2162FEFD206E10462
:200F8000F104A0F380914F0290915002A0915102B09152028093E8049093E904A093EA04AB
:200FA000B093EB0480E2E2CF4F925F926F927F928F929F92AF92BF92CF92DF92EF92FF9240
:200FC0000F931F93CF93DF93EC01423051056105710590F480E0DF91CF911F910F91FF90C5
:200FE000EF90DF90CF90BF90AF909F908F907F906F905F904F90089589859A85AB85BC85B1
:201000000196A11DB11D84179507A607B70710F3CB88DC88ED88FE888F89803109F042C092
:20102000BB27A72F962F852F480159012A013B01C80ED91EEA1EFB1E809100019091010152
:20104000A0910201B0910301C816D906EA06FB0699F58F898031C1F5B301A20155276627FC
:201060007727440F551F4D5D5D4FFA0191828082809122028160809322028A89823080F023
:201080008D819E81AF81B8858C0D9D1DAE1DBF1D8093080290930902A0930A02B0930B02E2
:2010A00081E099CFDB01CA01E7E0B695A79597958795EA95D1F7B8CF40E0C701B6010E941B
:2010C00061068111C6CF86CFB301A2014F77552766277727440F551F440F551F4D5D5D4F85
:2010E000FA0180829182A282B382C2CF8F929F92AF92BF92CF92DF92EF92FF920F931F93DA
:20110000CF93DF93FC0181859285A385B4850196A11DB11D84179507A607B70770F480E0F7
:20112000DF91CF911F910F91FF90EF90DF90CF90BF90AF909F908F90089583889488A588E6
:20114000B6888789803189F5BB27A72F962F852FE9016A017B018F01BC01CD01680D791DEA
:201160008A1D9B1D8090000190900101A0900201B090030186169706A806B90601F5F801D1
:201180008789803111F5DD24EE24FF24F601EE0FFF1FED5DFD4F80819181B0E0A0E088837C
:2011A0009983AA83BB8381E0BBCFDB01CA01C7E0B695A79597958795CA95D1F7C9CF40E0C1
:2011C0000E9461068111DBCFAACFE894C7F8DD24EE24FF24F601EE0FFF1FEE0FFF1FED5D69
:2011E000FD4F80819181A281B381BF70D8CF4F925F926F927F92AF92BF92CF92DF92EF929A
:20120000FF920F931F93CF93DF9300D000D0CDB7DEB78C0149835A836B837C835901C12CF2
:20122000D12C7601412C82E0582E612C712C49815A816B817C819E012F5F3F4FC8010E9407
:201240007608882339F1F8018585A301920104C0220F331F441F551F8A95D2F7DA01C90156
:20126000C80ED91EEA1EFB1E49815A816B817C818789803111F188EF9FEFAFEFBFE048178E
:2012800059076A077B0798F2F501C082D182E282F38281E00F900F900F900F90DF91CF9160
:2012A0001F910F91FF90EF90DF90CF90BF90AF907F906F905F904F90089588EF9FEFA0E076
:2012C000B0E0DDCFCF93DF93FC012581222321F080E0DF91CF910895EC018091E5048031A0
:2012E00059F582E08583178A108E118E128E8091E6049091E704B0E0A0E025E0880F991F4D
:20130000AA1FBB1F2A95D1F7838B948BA58BB68B8EEC94E09C8F8B8F81E08C831E821F8221
:20132000188619861A861B861C861D861E861F86188A198A1A8ACDCF803251F683E08583B8
:201340004091E8045091E9046091EA047091EB04478B508F618F728F9F012D5E3F4F8EEC5E
:2013600094E00E94F7088111D3CFB2CF8F929F92AF92BF92CF92DF92EF92FF920F931F9387
:20138000CF93DF93EC018D8181110EC080E0DF91CF911F910F91FF90EF90DF90CF90BF9073
:2013A000AF909F908F9008950B891C892D893E89041715072607370748F34A015B01823017
:2013C00031F48A869B86AC86BD8681E0E0CF81149104A104B10449F41E821F8218861986F3
:2013E0001A861B861C861D86F0CF0A851B852C853D85EB8DFC8D858590E00996B901A80189
:201400004150510961097109082E04C076956795579547950A94D2F775016401E1E0CE1A49
:20142000D108E108F10804C0F694E794D794C7948A95D2F7C416D506E606F70620F0012BA0
:20144000022B032B11F58F89988DA98DBA8D8E839F83A887B9878E010A5F1F4FC114D104BF
:20146000E104F10409F4ADCF4E815F816885798598018B8D9C8D0E94760891E0C91AD10858
:20148000E108F1088111EACF81CFC41AD50AE60AF70AE1CF3F924F925F926F927F928F929B
:2014A0009F92AF92BF92CF92DF92EF92FF920F931F93CF93DF93CDB7DEB72C970FB6F89430
:2014C000DEBF0FBECDBF5C01DC015B968D909C905C9716964D905D906D907C90199741142B
:2014E00051046104710409F468C0BFEF4B1A5B0A6B0A7B0A312CF40181859285A385B48556
:201500009C01AD012F5F3F4F4F4F5F4F29873A874B875C87730162011D821E821F8218869D
:20152000F40181859285A385B4852D813E814F815885281739074A075B0708F056C08985D0
:201540009A85AB85BC858C159D05AE05BF0550F482E0C82ED12CE12CF12C92E0492E512C18
:20156000612C712C9E012F5F3F4FB701A601C4010E9476088823C9F189819A81AB81BC814F
:20158000892B8A2B8B2B09F1260137019FEF491A590A690A790A2D813E814F8158852F5FE1
:2015A0003F4F4F4F5F4F2D833E834F8358873FEFC31AD30AE30AF30AB3CFF4014080518055
:2015C000628073803324339496CFC414D504E604F70409F70FEF1FEF2FEF3FE0B701A60175
:2015E000C4010E94D407811119C080E02C960FB6F894DEBF0FBECDBFDF91CF911F910F91B5
:20160000FF90EF90DF90CF90BF90AF909F908F907F906F905F904F903F900895D501169648
:201620004D915D916D917C911997411551056105710539F097018601C4010E94D407882366
:20164000A1F2D5011696CD92DD92ED92FC921997332051F0D701C6010196A11DB11DF4019F
:2016600080839183A283B383F5018789908DA18DB28D892B8A2B8B2B39F48481C78AD08E68
:20168000E18EF28E80688483F50184818062848381E0ACCF2F923F924F925F926F927F9236
:2016A0008F929F92AF92BF92CF92DF92EF92FF920F931F93CF93DF93EC015B012A018D81B8
:2016C000811115C08FEF9FEFDF91CF911F910F91FF90EF90DF90CF90BF90AF909F908F90BF
:2016E0007F906F905F904F903F902F9008958C8180FFE8CF0B891C892D893E894A855B853B
:201700006C857D85C201B0E0A0E068017901C41AD50AE60AF70AC816D906EA06FB0618F4B8
:201720002801441A550A42011E0126E0220E311C8114910409F4B3C04A855B856C857D85A2
:201740006A0181E0D8228B8D9C8D8A019B01E9E03695279517950795EA95D1F7ED81E230FC
:20176000E1F5FC01628D738D848D958D600F711F821F931F612C22E0722E6C187D08861450
:20178000970408F434012C8126FD04C06114F2E07F0671F4009100011091010120910201CF
:2017A00030910301061717072807390709F053C040E00E946106882309F484CFC6018D5DD9
:2017C0009D4FD5019C01260D371DFC012E173F0709F460C041914D93F9CFFC0174807A9405
:2017E0007022C114D10471F471100CC0452B462B472B39F58F89988DA98DBA8D8E839F838D
:20180000A887B987EB8DFC8D6E817F81888599856250710981099109258504C0660F771F75
:20182000881F991F2A95D2F70685178520893189600F711F821F931F670D711D811D911D97
:2018400099CF4E815F816885798591010E9476088111D8CF37CF750183019601AB01BC019B
:2018600080912002909121020E940205882309F429CFA60CB71C8A859B85AC85BD85860DEE
:20188000971DA11DB11D8A879B87AC87BD87861897084ECF281B390BA20EB31EECCFC2017E
:2018A00013CF1F93CF93DF93FC0125812223D1F1162FEC01848187FF2AC06685778580897F
:2018C000918941E00E946106882361F1EA8980E2E89FF0011124ED5DFD4F309719F18D81D0
:2018E000823040F48B899C89AD89BE89848F958FA68FB78F8F89988D938F828F8F89988DED
:20190000A98DBA8DB58BA48B8C818F778C83111103C08C818F7E8C83812FDF91CF911F917B
:201920000C94360680E0DF91CF911F910895FF920F931F93CF93DF93EC018D81813041F0B8
:2019400090E080E0DF91CF911F910F91FF9008958C8181FFF5CF82FD1BC00091200210916C
:201960002102C8010E948F040E946E04F82EC8010E945C048FEFF812E3CF8C8185FF1BC09B
:2019800060E0CE010E94510C8C818F7D8C83D8CF4B895C896D897E898A859B85AC85BD8512
:2019A00084179507A607B707C1F2CE010E94B6098111D3CFC5CF4091080250910902609122
:2019C0000A0270910B02452B462B472B21F080E00E941206B5CF80618C832A853B853170EB
:2019E00080E092E0821B930BADCFCF93DF93EC0161E00E94510C882311F01D8281E0DF9141
:201A0000CF9108952F923F924F925F926F927F928F929F92AF92BF92CF92DF92EF92FF928B
:201A20000F931F93CF93DF9300D000D01F92CDB7DEB77C015B01342E5D83DC0115968C9154
:201A40001597813009F0CEC014962C9021FECAC022FCB4C0C32CDD8022947FE027222094A3
:201A6000B22DB1702B2ED7011A964D915D916D917C911D97C114D10409F428C15B968D915B
:201A80009C915C97FC0174807A948A019B0169E036952795179507956A95D1F770228A0104
:201AA0001170711020C001151105E9F416964D915D916D917C911997411551056105710580
:201AC00009F099C057968D919D910D90BC91A02D0097A105B10509F0B0C0C7010E944A0AAA
:201AE000882309F47FC080E092E0801B910B46018C159D0508F44C01D7015B964D915C918F
:201B00005C9716968D919D910D90BC91A02D0297A109B109FA01258504C0880F991FAA1FA5
:201B2000BB1F2A95D2F74685578560897189840F951FA61FB71F9C01AD01270D311D411DAC
:201B4000511D29013A01811432E0930609F07BC08091000190910101A0910201B091030190
:201B600084159505A605B70559F48FEF9FEFDC018093000190930101A0930201B0930301DF
:201B8000022D9501B301A20180912002909121020E94A405882331F19EEFB91AC818D90879
:201BA000F70182859385A485B585880D991DA11DB11D82879387A487B58755CFF701438962
:201BC00054896589768982859385A485B585481759076A077B0709F43DCFC7010E94B609D5
:201BE000811138CF81E090E0D70113969C938E93129780E007C09E012F5F3F4F0E947608FF
:201C0000811102C090E079C089819A81AB81BC81F701238D348DF901278948EF5FEF60E061
:201C200070E0203121F048EF5FEF6FEF7FE084179507A607B70708F050CFF70186839783DC
:201C4000A087B18750CF0115110599F5D7011A964D915D916D917C911D9753968D919D9104
:201C60000D90BC91A02D481759076A077B0708F181E00E943606882309F4B4CF40920001C5
:201C800050920101609202017092030180912202816080932202C8018D5D9D4FD5019C0106
:201CA000280D391DFC012E173F0759F04D914193FACF41E0C301B2010E9461068111EBCF60
:201CC00091CF281B390BA20EB31E68CFF70183899489A589B68984179507A607B70738F409
:201CE0008481438B548B658B768B80688483F701848183FD1AC0832D9D810F900F900F9050
:201D00000F900F90DF91CF911F910F91FF90EF90DF90CF90BF90AF909F908F907F906F909F
:201D20005F904F903F902F90089561E0C7010E94510C882309F456CFDECFCF93DF931F92A3
:201D4000CDB7DEB7698341E050E0BE016F5F7F4F0E94020D0F90DF91CF910895FC01DB013C
:201D600012968D919C9113979383828380E291E09183808314968C911497848315968C9180
:201D80001597858316964D915D916D917C91199746835783608771871A964D915D916D9160
:201DA0007C911D9742875387648775871E964D915D916D917C91519746875787608B718BD3
:201DC00052968C915297828B53964D915D916D917C915697438B548B658B768B57964D91F2
:201DE0005D916D917C915A97478B508F618F728F5B968D919C91948F838F08950895FC01AF
:201E0000818D928D009719F061E00C94510C0895DC015996ED91FC913097B9F083899489AA
:201E2000A589B6894285538564857585841B950BA60BB70B811520E89207A105B10538F046
:201E40008FEF9FE7A0E0B0E0089590E080E00895DC0159968D919C91009739F0DC01ED9132
:201E6000FC910480F581E02D099490E080E00895CF93DF93EC01E98DFA8D309749F481E0A1
:201E800090E09B838A8390E080E0DF91CF91089513821282898D9A8D0E94020DE98DFA8D56
:201EA00022813381232B59F7F0CFCF93DF931F92CDB7DEB76983DC01ED91FC910280F38106
:201EC000E02D41E050E0BE016F5F7F4F09950F90DF91CF910895CF93DF931F92CDB7DEB701
:201EE00041E050E0BE016F5F7F4F0E944A0B019731F4898190E00F90DF91CF9108958FEF7E
:201F00009FEFF9CFFC01818D928D009711F00C946B0F8FEF9FEF08950F931F93CF93DF93BE
:201F2000EC01898D9A8D10E000E0009799F00E946B0F8C010F3F100769F0898D9A8DFC01E6
:201F4000428553856485758541505109610971090E94B609C801DF91CF911F910F91089549
:201F6000CF93DF93FB0122813381DC0113963C932E931297448155816681778114964D9377
:201F80005D936D937C931797408551856285738518964D935D936D937C931B971C96EF0139
:201FA0002C969C01275E3F4F49914D93A217B307D9F7218D328DFC01328F218FDF91CF9107
:201FC0000895FC0101900020E9F73197AF01481B590BBC0183E294E00C9454018F929F92BA
:201FE000AF92BF920F931F93CF93DF93CDB7DEB7A1970FB6F894DEBF0FBECDBF19A2423062
:2020000008F44AE08E010F5D1F4F842E912CB12CA12CA50194010E94BF19E62FB901CA01C9
:20202000EA30F4F4E05DD801EE938D01232B242B252B79F790E080E0109719F0CD010E942C
:20204000E10FA1960FB6F894DEBF0FBECDBFDF91CF911F910F91BF90AF909F908F90089579
:20206000E95CE1CFCF93DF93D0E0C0E0009719F00E94E10FEC018AE391E00E94E10F8C0F1D
:202080009D1FDF91CF9108950F931F93CF93DF938C01D0E0C0E0F801EC0FFD1F6491662384
:2020A00041F083E294E00E94F401892B11F02196F2CF8AE391E00E94E10F8C0F9D1FDF911B
:2020C000CF911F910F9108950F931F93CF93DF93EC0180E2689FF0011124ED5DFD4F6A8B84
:2020E0008091000190910101A0910201B09103018E879F87A88BB98B0489158930E020E045
:202100009801112700270F8B188F298F3A8F828D938DB0E0A0E0AC01BD01402B512B622BE7
:20212000732B4F8B588F698F7A8F83858871A9F4848D958DA68DB78D8B8B9C8BAD8BBE8B39
:2021400081E08D8381E08C831E821F82188619861A861B861C861D8603C0803131F080E0A5
:20216000DF91CF911F910F9108959E012D5E3F4F8B8D9C8D0E94F708882389F384E0E1CFCD
:20218000AF92BF92CF92DF92EF92FF920F931F93CF93DF93CDB7DEB72B970FB6F894DEBFD8
:2021A0000FBECDBF6C01FE013196CE010C967F0120E22193E817F907E1F7DA0120E037E023
:2021C0009D91B92E9923A9F19E32B9F43A3091F480E02B960FB6F894DEBF0FBECDBFDF9150
:2021E000CF911F910F91FF90EF90DF90CF90BF90AF90089528E03AE0E3CFE2E4F2E08491A7
:20220000882321F031969813FACFE2CF321700F38FED890F8E35E0F68FE9890F8A3118F456
:2022200040EEB42EB90EF701E20FF11DB0822F5FC7CF8981803261F28B01FB01838D948DB2
:20224000F601948F838FFB0116821782108611861286138614861586F80182859385A48551
:20226000B585438954896589768984179507A607B70708F0ADCF25E0B695A79597958795A4
:202280002A95D1F7F82FFF70AF2EF8018581823008F49ECFC8010E946B0F97FD99CFF80150
:2022A00082859385A485B5854F96A11DB11D82879387A487B587F0E2AF9EB00111246D5DD2
:2022C0007D4F6115710509F483CFFB018081882309F1853E19F4B11032C01EC04BE050E099
:2022E000C7010E94261B892B09F0B6CF6A2DC6012B960FB6F894DEBF0FBECDBFDF91CF91CB
:202300001F910F91FF90EF90DF90CF90BF90AF900C946410B1105CCFF601A28A80910001CE
:2023200090910101A0910201B091030186879787A08BB18BFB018081882309F449CFBB24D3
:20234000B3948ACF8091240590912505009761F00E94F50C80912405909125050E949D1AEF
:2023600010922505109224050895EF92FF920F931F93CF93DF93EC017B018A011B821A82C2
:2023800088EE93E0A0E0B0E08C839D83AE83BF838CE291E0998388838DE190E00E94011A01
:2023A0009A8F898F009779F02DE1F701DC0101900D922A95E1F74CE050E0B801CE010C96AC
:2023C0000E944C1B188EDF91CF911F910F91FF90EF9008951F920F920FB60F9211242F93D4
:2023E0003F934F935F936F937F938F939F93AF93BF93EF93FF9383E294E00E94D201FF9149
:20240000EF91BF91AF919F918F917F916F915F914F913F912F910F900FBE0F901F90189585
:202420001F920F920FB60F9211242F938F939F93EF93FF93E0913304F09134048081E091B2
:202440003904F0913A0482FD1BC0908180913C048F5F8F7320913D04821741F0E0913C0467
:20246000F0E0ED5DFB4F958F80933C04FF91EF919F918F912F910F900FBE0F901F901895FA
:202480008081F4CF1F920F920FB60F9211242F933F938F939F93AF93BF9380910D029091CE
:2024A0000E02A0910F02B091100230910C0223E0230F2D3758F50196A11DB11D20930C02DE
:2024C00080930D0290930E02A0930F02B09310028091110290911202A0911302B091140218
:2024E0000196A11DB11D8093110290931202A0931302B0931402BF91AF919F918F913F910B
:202500002F910F900FBE0F901F90189526E8230F0296A11DB11DD2CFE3E2F4E013821282CD
:2025200088EE93E0A0E0B0E084839583A683B7832EE031E03183208325EC30E03587248722
:2025400024EC30E03787268720EC30E0318B208B21EC30E0338B228B22EC30E0358B248B58
:2025600026EC30E0378B268B118E128E138E148EE0ECF4E020E520831182E2ECF4E0158230
:2025800016821186138642E050E060E070E0448755876687778713A215A614A620E231E0C2
:2025A00033A722A717A6E1E4F5E021E1278328E0268327E0258326E0248325E0238324E0B9
:2025C000228323E0218322E0208320E120872FE021872EE022872FEF2387248732E13587B2
:2025E00026871786E6E2F5E01382128284839583A683B7832CE231E031832083128E118E94
:202600001486EBE0F5E01382128284839583A683B78331832083128E118E14860895CF93A6
:20262000DF93CDB7DEB7C658D1090FB6F894DEBF0FBECDBF789484B5826084BD84B581604E
:2026400084BD85B5826085BD85B5816085BD80916E00816080936E001092810080918100E8
:2026600082608093810080918100816080938100809180008160809380008091B100846032
:202680008093B1008091B00081608093B00080917A00846080937A0080917A008260809395
:2026A0007A0080917A00816080937A0080917A00806880937A001092C10061E089E00E94F8
:2026C0002C0360E089E00E94B30280E48093800089E0809381001092820010926F00109200
:2026E000890083E080938800E0913304F091340482E08083E0912F04F09130041082E09131
:202700003104F09132048FEC808310923B04E0913704F091380486E08083E0913504F09171
:202720003604808180618083E0913504F0913604808188608083E0913504F09136048081C3
:2027400080688083E0913504F091360480818F7D808361E08AE00E942C0362E083E10E9455
:202760002C030E946803809149058F3F19F061E00E942C0380914A058F3F19F061E00E94BB
:202780002C0380914B058F3F19F061E00E942C0380E00E94E10280914C058F3F29F060E052
:2027A000809149050E942C0380914D058F3F29F060E0809149050E942C0380914E058F3FFD
:2027C000B1F060E00E942C0360E080914E050E94B30261E080914E050E942C0383E190E002
:2027E0000197F1F760E080914E050E942C0380914F058F3F19F060E00E942C0381E492E0C0
:202800000E94441087EF91E00E94441086EC91E00E94441085EC91E00E9444108091F1042E
:20282000882321F08CEE94E00E94F50C1092CD041092CB041092C8041092C7048AE080930F
:20284000C6040E944A048B0161E08091C6040E942C0361E08091C6040E94B302FFB6F89491
:2028600080911502811127C0E8EBF0E08491E4EAF0E09491E82FF0E0EE0FFF1FE057FF4FB5
:20288000A591B491EC91E92321F461E08AE00E94B30261E08AE00E942C038CB580618CBD36
:2028A0008CB580648CBD61E08DE00E942C0361E08BE00E942C03809115028F5F809315026E
:2028C000FFBE82E58093C0041092C1048091C0049091C1040E948C046AE0F62E8FEF0E941B
:2028E0006704FA94F110FACF82EC94E00E948F0420E030E0A90160E082EC94E00E94A504D7
:20290000F82E8093CC0421E0821799F00E944A04601B710B613D774058F381E08093C704C5
:2029200082EC94E00E945C048AE991E00E944410FFCF2AEA31E040E050E068E082EC94E06C
:202940000E94A50482FF2AC0F092CD048091CD04C12CD12CE12C40E4F42E823019F0C12CA7
:20296000D12C760120E030E0A90167E382EC94E00E94A504A701960169E282EC94E00E94A4
:20298000A5048093CC048823D1F00E944A04601B710B613D774030F388E0C0CF54E0F52E92
:2029A0000E946E048093CC04FA94F110F9CF8A3A11F082E0B3CF82E08093CD04C7CF809133
:2029C000CD048230D1F420E030E0A9016AE382EC94E00E94A504882311F086E09FCF0E9459
:2029E0006E04807C803C19F483E08093CD040E946E040E946E040E946E0482EC94E00E9499
:202A00005C0480E58093C0041092C10481E00E94AB06882309F446C08CEE94E00E94620956
:202A2000882309F481CF8FE391E00E9432108CE391E00E9432101CA21BA280E291E09AA388
:202A400089A31EA21C821B829A8389831E824E0191E2890E911CC4010E9462098E010F5FB1
:202A60001F4F24013DE3C32E31E0D32EB02EA12E6FE270E0C6010E94331B009709F466C0E1
:202A8000D6012C912F32A9F4BFEFCB1ADB0A902F812F8201492E582E942D852D2801092F69
:202AA000182FE6CF80E00E94AB06882309F43CCFB3CF8C198D3008F08CE0E82EF12CA70191
:202AC000B601CE01855A9F4F0E944C1BEBE5F0E0EC0FFD1FEE0DFF1D1082C8010E94F50CCE
:202AE000F8018581882319F122961FAE1EAE229780E291E09FAF8EAF24961FAE24978301F4
:202B0000035C1E4FD8018C9181112AC0BE01625C7F4F8B2D9A2D0E94AE0E4DE351E06B2D56
:202B20007A2DCE01855A9F4F0E94B51140C0AE01455A5F4FB201C8010E94C0108823A1F2C2
:202B4000CE0CDF1CC2010E94F50CA6CFC6018D5391403C01B201CE01CE960E94AE0ECFCF2E
:202B60001CA21BA280E291E09AA389A31EA224968FAD24978111D7C16F961FAE1EAE6F975F
:202B800088EE93E0A0E0B0E0A3968CAF9DAFAEAFBFAFA3978CE291E06D969FAF8EAF6D9706
:202BA000E6961FAE1EAEE697A8961FAEA897BE01655A7F4F86E295E00E94B00F81E090E0DE
:202BC00090931F0280931E0284E591E00E94321067E087E00E94E0036EEF87E00E94E00344
:202BE00068E088E00E94E0030AE011E0F80185919491692F81E00E94E003F801659174911F
:202C000080E00E94E00364EF71E080E090E00E94180400E111E0F80185919491692F81E09E
:202C20000E94E003F8016591749180E00E94E00364EF71E080E090E00E9418046CEF87E042
:202C40000E94E00368E089E00E94E00306E111E0F80185919491692F83E00E94E003F80134
:202C60006591749182E00E94E00364EF71E080E090E00E9418040CE111E0F801859194912E
:202C8000692F83E00E94E003F8016591749182E00E94E00364EF71E080E090E00E941804A7
:202CA00069EF87E00E94E00368E08AE00E94E00302E211E0F80185919491692F85E00E94F1
:202CC000E003F8016591749184E00E94E00364EF71E080E090E00E94180408E211E0F8012E
:202CE00085919491692F85E00E94E003F8016591749184E00E94E00368EE73E080E090E0C1
:202D00000E94180467E087E00E94E00360E088E00E94E00360E089E00E94E00360E08AE0BD
:202D20000E94E0036AEF70E080E090E00E9418048AE691E00E94321067EC87E00E94E003D3
:202D40006FE186E00E94E00365E18CE00E94E00364E08DE00E94E00360E188E00E94E0039D
:202D600060E189E00E94E00360E18AE00E94E00368EE73E080E090E00E94180460E08CE011
:202D80000E94E0036AEF70E080E090E00E94180467EC87E00E94E00365E086E00E94E00308
:202DA0006FE08CE00E94E00361E08DE00E94E00360E188E00E94E00360E189E00E94E00343
:202DC00060E18AE00E94E00368EE73E080E090E00E94180460E08CE00E94E00367EC87E0A1
:202DE0000E94E00362E086E00E94E00364E08CE00E94E00368E08DE00E94E00360E188E009
:202E00000E94E00360E189E00E94E00360E18AE00E94E00368EE73E080E090E00E94180497
:202E200060E08CE00E94E00367EC87E00E94E0036FE186E00E94E00363E18CE00E94E003B2
:202E400062E08DE00E94E00360E188E00E94E00360E189E00E94E00360E18AE00E94E003B1
:202E600068EE73E080E090E00E94180460E08CE00E94E00367EC87E00E94E0036AE186E0FA
:202E80000E94E00368E088E00E94E00368E089E00E94E00368E08AE00E94E0036CED75E05D
:202EA00080E090E00E94180468E387E00E94E00360E088E00E94E00360E089E00E94E003F2
:202EC00060E08AE00E94E0039CEBC92E92E0D92EE12CF12C28EE422E23E0522E612C712C6F
:202EE0008CE2282E81E0382EFE013F96CD57DF4FF983E883C358D04080911E0290911F029C
:202F00008130910509F4E8C018F18230910509F4F8C1039709F4B6C0E2E0F0E0F0931F027B
:202F2000E0931E0299C0A801BE01625C7F4FC4010E94C010882309F41FCECE01CE960E9410
:202F4000F50CB4018B2D9A2D0E94AE0EA801E7CD0E94F30300911A0210911B0220911C02AF
:202F600030911D02601B710B820B930B61327E448105910508F441C00E94F30360931A023A
:202F800070931B0280931C0290931D028BE095E00E94080F892B09F46CC0CB57DF4FB8829E
:202FA000C558D040CA57DF4FA882C658D0400B2D1A2D8BE095E00E94820FD8018D938D0124
:202FC000CD57DF4FE881F981C358D040EA17FB0781F710E0CB57DF4FA881B981C558D04046
:202FE0006D91CB57DF4FB983A883C558D040812F0E94E0031F5F1E3069F783E10E948A02FC
:20300000892B51F50E944A0400911602109117022091180230911902601B710B820B930B9A
:203020006531710581059105B8F00E944A046093160270931702809318029093190283E0DB
:2030400090E090931F0280931E020E94B003682F6F6387E00E94E00380E090E0892B09F45E
:203060004BCF0E94BE01882309F43ACF0E94000037CF0E94A21181E090E090931F028093FF
:203080001E02BBCF83E10E948A028C01019721F70E944A0420911602309117024091180239
:2030A00050911902621B730B840B950B653171058105910588F20E944A046093160270934A
:2030C000170280931802909319020E94A21110931F0200931E02C0CF00913F051091400556
:2030E000F8018581823008F494C082859385A485B5858F719927AA27BB27892B8A2B8B2BBB
:2031000009F087C040E250E06B2D7A2DC8010E944A0B803209F07DC08981882309F479C04B
:20312000853E81F38E3271F38C8583FDEBCF22961FAE1EAE229780E291E09FAF8EAF2496C7
:203140001FAE24976B2D7A2DE0E080E0DB019D91BD019032A9F0883051F426E730E02C0F10
:203160003D1F2E0F311DFEE2D901FC93EF5F26E730E02C0F3D1F2E0F311DD9019C93EF5F3B
:203180008F5F8B3019F786E790E08C0F9D1F8E0F911DFC01108260913F0570914005AE013E
:2031A0004A585F4FCE01CE960E94C010882389F1BE01625C7F4FC4010E94AE0EAE014A5836
:2031C0005F4FB401CE01855A9F4F0E94B511BE01655A7F4F8BE095E00E94B00FE091240561
:2031E000F0912505309719F08581811128C0A2E0B0E0B0931F02A0931E020E94B003682F1F
:203200006F6387E00E94E00380E891E00E94321023CF6F961FAE1EAE6F97A3964CAE5DAE5F
:203220006EAE7FAEA3976D963FAE2EAE6D97E6961FAE1EAEE697A8961FAEA897C8CF46E0A2
:2032400050E062EB71E087E195E00E943E1B892B51F045E050E069EB71E087E195E00E945A
:203260003E1B892B59F48FEB91E00E94E10F87E195E00E9432100E94A211EECE8FEC91E0B9
:203280000E94E10F87E195E00E9432108DED91E00E94E10FE0912405F091250560E070E089
:2032A000CB01309721F063897489858996894AE00E94EE0F8AE391E00E94E10F81EF91E03A
:2032C0000E94E10FE0912405F091250560E070E0CB01309721F06389748985899689A70125
:2032E00096010E94BF19CA01B9014AE00E94EE0F8CEF91E00E94321010921F0210921E021A
:20330000ABCE83E10E948A02892B09F0A5CE0E944A040091160210911702209118023091A3
:203320001902601B710B820B930B653171058105910508F491CE0E944A04609316027093CF
:203340001702809318029093190283E090E090931F0280931E02E0913F05F091400530975D
:2033600009F47ACE8581823008F476CE168217821086118612861386148615866DCEA1E28E
:203380001A2EAA1BBB1BFD010DC0AA1FBB1FEE1FFF1FA217B307E407F50720F0A21BB30BCC
:2033A000E40BF50B661F771F881F991F1A9469F760957095809590959B01AC01BD01CF018B
:2033C00008950E94F219A59F900DB49F900DA49F800D911D11240895EE0FFF1F0590F4914D
:2033E000E02D0994A29FB001B39FC001A39F700D811D1124911DB29F700D811D1124911D8F
:2034000008950F931F93CF93DF938230910510F482E090E0E0915305F091540530E020E016
:20342000B0E0A0E0309799F42115310509F44AC0281B390B24303105D8F58A819B8161153A
:20344000710589F1FB0193838283FE0111C0408151810281138148175907E0F0481759079D
:2034600099F4109761F012960C93129713961C933296CF01DF91CF911F910F910895009397
:20348000530510935405F4CF2115310551F04217530738F0A901DB019A01BD01DF01F801D5
:2034A000C1CFEF01F9CF9093540580935305CDCFFE01E20FF31F819391932250310939839F
:2034C0002883D7CF2091510530915205232B41F42091060130910701309352052093510555
:2034E00020910401309105012115310541F42DB73EB74091080150910901241B350BE09120
:203500005105F0915205E217F307A0F42E1B3F0B2817390778F0AC014E5F5F4F24173507FD
:2035200048F04E0F5F1F5093520540935105819391939FCFF0E0E0E09CCFCF93DF93009709
:20354000E9F0FC01329713821282A0915305B0915405ED0130E020E01097A1F420813181F3
:20356000820F931F20915105309152052817390709F061C0F0935205E0935105DF91CF91DD
:203580000895EA01CE17DF07E8F54A815B819E0141155105B1F7E901FB83EA8349915991C8
:2035A000C40FD51FEC17FD0761F4808191810296840F951FE90199838883828193819B83B0
:2035C0008A83F0E0E0E012968D919C9113970097B9F52D913C911197CD010296820F931F90
:2035E00020915105309152052817390739F6309751F51092540510925305B0935205A0932F
:203600005105BCCFD383C28340815181840F951FC817D90761F44E5F5F4F88819981480F6B
:20362000591F518340838A819B81938382832115310509F0B0CFF0935405E09353059ECF41
:20364000FD01DC01C0CF13821282D7CFFB01DC0104C08D910190801921F441505040C8F757
:20366000881B990B0895FC018191861721F08823D9F7992708953197CF010895FB01DC01C3
:203680004150504030F08D910190801919F40020B9F7881B990B0895FB01DC0141505040E6
:2036A00048F001900D920020C9F701C01D9241505040E0F70895F894FFCFFFFFFFFF000067
:2036C0005505800000000000F401540181014102B2019001A401000000009D0E5401970C75
:2036E000FE0E00000000550F380F280FFF0E080F820F8C0F0D0A002F00534420496E6974FB
:2037000069616C697A6174696F6E204F4B00506C6179696E672064656D6F20746F6E6573D9
:203720002E2E2E00506C6179696E672064656D6F206E6F6973652E2E2E004E6F206D6F7273
:20374000652066696C657320666F756E642E20507265737320627574746F6E20746F2073E8
:203760007461727420616761696E2E0053595354454D00545241534800536B697070696EFB
:20378000672066696C653A200046696C65206F70656E65643A200046696C652073697A65D8
:2037A00020286279746573293A20004475726174696F6E3A2000207365636F6E6473000068
:2037C000FFFFFFFFFFFFFFFFFFFFFFFFFFFFFFFFFFFFFFFFFFFFFFFFFFFFFFFFFFFFFFFF09
:2037E000FFFFFFFFFFFFFFFFFFFFFFFFFFFFFFFFFFFFFFFFFFFFFFFFFFFFFFFFFFFFFFFFE9
:20380000310941095109E9CF81E0213479F180E02DC0EDE7F4E080A581932E163F06D9F76B
:203820008091AC049091AD0495330CF08F5F8093840485E48093850410928604A2CE0E9465
:20384000D80360938F0470939004809391049093920497CE20937004309371044093720402
:20386000509373048ECE81E021338CF28093B70488CE0E94D8036093930470939404809386
:203880009504909396046F3FAFEF7A078A079A0759F10E943E1F20E030E048EC52E40E946E
:2038A0006B2320E030E040EA50E40E949F1F6B017C01C0929704D0929804E0929904F09247
:2038C0009A0420E83FE747E859E40E941324181684F4109375041093760410937704109337
:2038E000790410937A044DCE60E070E088EC92E4D8CF20E03CEC48ED57E4C701B6010E9435
:203900001324181644F320E038E840E956E4C701B6010E941324181604F320E030E447EEC2
:2039200054E4C701B6010E9413241816C4F220E030E049E353E4C701B6010E94132418161A
:2039400084F2D3CD1092B6041092B5041092A304A092B4041092A4041092B7049ACDEE303B
:2039600040F481E08E0F8093B604F0E0E459FB4F01AF8091A40481118CCD8091A3040827B6
:203980000093A30486CD9920B1F164E774E0CE018F5A9F4F0E9475266DE774E0CE010196AF
:2039A0000E94752680919F049091A004A091A104B091A2048F3F9F4FAF4FBF4F11F00E9429
:2039C0003B0669EF76E085EF92E00E945D04BE016F5A7F4F85EF92E00E943E0963EF76E042
:2039E00085EF92E00E945D04BE016F5F7F4F85EF92E00E943E094090B8045090B90460909B
:203A0000BA047090BB040091BC041091BD04E090BE04F090BF046BEE76E085EF92E00E94CA
:203A20005D042AE0B301A20185EF92E00E9475096FED76E085EF92E00E945D04A80170E02A
:203A400060E02AE085EF92E00E94750964ED76E085EF92E00E945D04B70185EF92E00E9446
:203A6000550A45284628472831F460EA76E085EF92E00E94630980E0E82E80E0F82EEF28D1
:203A800009F4F3CC0E94EB04882309F4ECCC0E940000E9CC84E993E00E94300B8FE194E081
:203AA0000E94530B8FE591E090934E0480934D048091F3029091F4028D54944071F4E091A0
:203AC0006004F09161049081809162048095892380831092F4021092F3020895EF920F9361
:203AE0001F93CF93DF93E80134E047FD34E1042E000C550B57FF03C0519541955109E32E0C
:203B0000022F242FAE010E940C20CE01DF91CF911F910F91EF900895B0E0A0E0E2E9FDE1E0
:203B20000C94BE225C017B016115710519F0DB018D939C9385010F5F1F4FF501D0818D2FA7
:203B400090E00E94FA1E6C01892BB9F5DD32B9F50F5F1F4FD5011196DC91C1E05801F1E01E
:203B6000AF1AB10843E050E060E770E0C5010E94191F892B69F5680182E0C80ED11C45E074
:203B800050E06BE670E0C6010E94191F892B21F4680197E0C90ED11CE114F10419F0D7017B
:203BA000CD92DC9260E070E080E89FEFC111FFC060E070E080E89FE7FAC05801BBCFDB32F9
:203BC00029F485010E5F1F4FF501D181C0E0C6CF43E050E068E670E0C5010E94191F892BA5
:203BE000E9F0F80110E000E020E030E0A9015F01B0ED8B2E8D0E89E08815C8F19C2E689493
:203C000091F88C2F8870C2FF16C0811102C00F5F1F4F3196D501DC91C92DE9CFE114F104FF
:203C200029F00E5F1F4FF7011183008360E070E080EC9FE7BCC0882311F001501109A5E0E7
:203C4000B0E00E94AD229B01AC01220F331F441F551F280D311D411D511D283999E939074E
:203C6000490799E15907A8F2C6609C2ED2CFAEEF8A1206C0C3FD3CC09C2E689493F8C9CF4B
:203C8000DF7DD534A9F580818D3239F4C061DF011296818162E070E006C0DF018B32C1F3E0
:203CA000119661E070E080535D01A61AB70A8A30F8F4E0E8CE16ECE0DE065CF4B601660F9C
:203CC000771F660F771FC60ED71ECC0CDD1CC80ED11C5D01FFEFAF1ABF0A8C9180538A305E
:203CE000A8F1C4FF03C0D194C194D1080C0D1D1DC1FF09C0E114F10431F081E0A81AB1084F
:203D0000D701AD92BC92CA01B9010E943E1FC370C33009F490584B015C0120E030E0A9014C
:203D20000E94391F882309F440C0CFE9D0E017FF05C0119501951109C7E8D0E06E01B8E1E1
:203D4000CB1AD10880E2E82EF12C0FC0D501B1CFFE0125913591459154910E191F09C501A0
:203D6000B4010E949F1F4B015C01D501C4010E151F0574F72497F594E794CC16DD06A9F714
:203D80008A2F880F8B2F881F8F3F49F020E030E0A901C501B4010E94391F811106C082E280
:203DA00090E09093C3048093C204C501B401CDB7DEB7ECE00C94DA22FC0188279927E894EC
:203DC00021912032E9F3293010F02E30C8F32B3241F02D3239F4689404C00E94311F820F34
:203DE000911D219120532A30C0F31EF4909581959F4F089591110C944322803219F08950D0
:203E00008550C8F70895FB01DC0104C08D910590801921F441505040C8F7881B990B0895AF
:203E2000FB01DC0102C005900D9241505040D8F70895FB01DC014150504088F08D918134E1
:203E40001CF08B350CF4805E659161341CF06B350CF4605E861B611171F3990B0895881B68
:203E6000FCCF7AE0979F902D879F802D910D112408950E947B1F08F481E00895E89409C06C
:203E800097FB3EF490958095709561957F4F8F4F9F4F9923A9F0F92F96E9BB279395F695FE
:203EA000879577956795B795F111F8CFFAF4BB0F11F460FF1BC06F5F7F4F8F4F9F4F16C094
:203EC000882311F096E911C0772321F09EE8872F762F05C0662371F096E8862F70E060E0E8
:203EE0002AF09A95660F771F881FDAF7880F9695879597F90895990F0008550FAA0BE0E85A
:203F0000FEEF16161706E807F907C0F012161306E407F50798F0621B730B840B950B39F4C5
:203F20000A2661F0232B242B252B21F408950A2609F4A140A6958FEF811D811D08950E941F
:203F4000B21F0C945D220E944F2238F00E94562220F0952311F00C9446220C944C22112408
:203F60000C9491220E946E2270F3959FC1F3950F50E0551F629FF001729FBB27F00DB11D79
:203F8000639FAA27F00DB11DAA1F649F6627B00DA11D661F829F2227B00DA11D621F739FB2
:203FA000B00DA11D621F839FA00D611D221F749F3327A00D611D231F849F600D211D822F1E
:203FC000762F6A2F11249F5750409AF0F1F088234AF0EE0FFF1FBB1F661F771F881F915000
:203FE0005040A9F79E3F510580F00C9446220C9491225F3FE4F3983ED4F38695779567955E
:20400000B795F795E7959F5FC1F7FE2B880F911D9695879597F90895A9E0B0E0E2E1F0E206
:204020000C94BE226A01F22EB02E102FFBE3AF2EA01608F41BE31F5F012F27E0AE014F5FDB
:204040005F4F0E946B21BC018981982F9970913009F43FC09BE2E1FC04C09E2D9170E0FC6A
:204060003AC05E2D5071E82FE87083FF46C084E0911101C083E0EF2DE81B8F1508F0E0E05E
:20408000D6018E2F20E2552351F1992329F0D6019C93C60101966C0196012D5F3F4FE2FE99
:2040A00024C08EE4D6018C9391E411969C93119712968C93D9018E2F90E281111BC0E20F93
:2040C000F32FF11D10828EEF9FEF2996ECE00C94DA229DE2C6CF90E2C4CF2D9381508111B0
:2040E000FCCFCE0ED11CE0E0D0CF8EE6D6018C9391E6DBCF9D938150E0CF482F447082FFE6
:204100003DC084E0911101C083E08F1510F4EF2DE81BD6018E2F20E2552309F1992329F0D4
:20412000D6019C93C60101966C0196012D5F3F4FE2FE1BC089E4D6018C938EE411968C93A7
:20414000119786E412968C93D9018E2F90E2882309F4B5CF9D938150FACF2D938150811164
:20416000FCCFCE0ED11CE0E0D9CF89E6D6018C938EE611968C93119786E6E4CF9B0177FFCB
:2041800002C030E020E0A1E0B0E0911102C0B0E0A0E0F9013196AE0FBF1F8B2C912CBB201D
:2041A00009F461C05401EFEFAE1ABE0AAA0DBB1DFA161B0619F014F04F2D4A1B511188C0C6
:2041C000E3FC59C07601A42FB0E2A1114FC0C40ED11C992309F45BC040E0D6011196F60122
:2041E00090836D01552309F448C0012F060F9A81582F507184FF03C0913309F4015010169B
:204200000CF047C0093008F008E0EEE2FE2E5B01A01AB10885019194819491082F3F3207B7
:2042200029F4D601FC92F60131966F016217730794F1021713077CF5DB01A21BB30BAA248D
:20424000A394B12CAC0EBD1EAA0DBB1D11968C9121503109D601119628153905F4F0F601E3
:2042600080836D01DBCFB12CA12CA0CFF701B1937F01A150AACF9111B0CFD601942F50E3F6
:2042800002C05D9391509111FCCFC40ED11C40E0ACCF01E0BACF80E3DBCF6217730731F435
:2042A000963388F4953311F4552369F0F6018083FD01842F90E2811108C0A40FB11D1C9275
:2042C00090E080E002CF81E3F1CF91938150F3CF911183CF8ACF283008F027E03327DA0189
:2042E000990F311D87FD916000966105710539F432602E5F3D9330E32A95E1F708959F3FA0
:2043000030F080387105610509F03C5F3C5F3D93913008F08068911DDF93CF931F930F9373
:20432000FF92EF92192F987F9695E92F96959695E90FFF27E350FF4F99273327EE24FF2485
:20434000A701E70105900894079428F4360FE71EF81E491F511D660F771F881F991F0694AB
:20436000A1F70590079428F4E70EF81E491F561FC11D770F881F991F661F0694A1F7059062
:20438000079428F4F80E491F561FC71FD11D880F991F661F771F0694A1F70590079420F4CF
:2043A000490F561FC71FD81F990F661F771F881F0694A9F784911095177041F0D695C79576
:2043C00057954795F794E7941A95C1F7E3EAF0E068941590159135916591959105907FE2EC
:2043E0007395E118F10A430B560BC90BD009C0F7E10CF11E431F561FC91FD01D7EF47033F1
:2044000011F48A95E6CFE894015030F0080F0AF40027021708F4202F2395022F7A3328F088
:2044200079E37D932A95E9F710C07D932A9589F6069497956795379517951794E118F10A7A
:20444000430B560BC90BD00998F023957E9173957A3308F070E37C932013B8F77E917061E0
:204460007D9330F0839571E37D9370E32A95E1F71124EF90FF900F911F91CF91DF91992783
:2044800087FD9095089599278827089597F99F6780E870E060E008959FEF80EC08950024E4
:2044A0000A941616170618060906089500240A9412161306140605060895092E0394000CAC
:2044C00011F4882352F0BB0F40F4BF2B11F460FF04C06F5F7F4F8F4F9F4F089557FD905899
:2044E000440F551F59F05F3F71F04795880F97FB991F61F09F3F79F087950895121613065E
:204500001406551FF2CF4695F1DF08C0161617061806991FF1CF86957105610508940895CA
:20452000E894BB2766277727CB0197F90895F999FECF92BD81BDF89A992780B50895262F94
:20454000F999FECF1FBA92BD81BD20BD0FB6F894FA9AF99A0FBE019608950E94EF22A59F49
:20456000900DB49F900DA49F800D911D112408952F923F924F925F926F927F928F929F9296
:20458000AF92BF92CF92DF92EF92FF920F931F93CF93DF93CDB7DEB7CA1BDB0B0FB6F89448
:2045A000DEBF0FBECDBF09942A88398848885F846E847D848C849B84AA84B984C884DF800A
:2045C000EE80FD800C811B81AA81B981CE0FD11D0FB6F894DEBF0FBECDBFED010895A29F84
:2045E000B001B39FC001A39F700D811D1124911DB29F700D811D1124911D08955058BB2741
:20460000AA270E9416230C945D220E944F2238F00E94562220F039F49F3F19F426F40C9498
:204620004C220EF4E095E7FB0C944622E92F0E946E2258F3BA17620773078407950720F02B
:2046400079F4A6F50C9490220EF4E0950B2EBA2FA02D0B01B90190010C01CA01A001112495
:20466000FF27591B99F0593F50F4503E68F11A16F040A22F232F342F4427585FF3CF4695AF
:2046800037952795A795F0405395C9F77EF41F16BA0B620B730B840BBAF09150A1F0FF0F6E
:2046A000BB1F661F771F881FC2F70EC0BA0F621F731F841F48F4879577956795B795F79520
:2046C0009E3F08F0B0CF9395880F08F09927EE0F9795879508950E947F230C945D220E9428
:2046E000562258F00E944F2240F029F45F3F29F00C94462251110C9491220C944C220E9476
:204700006E2268F39923B1F3552391F3951B550BBB27AA2762177307840738F09F5F5F4F3D
:20472000220F331F441FAA1FA9F335D00E2E3AF0E0E832D091505040E695001CCAF72BD035
:20474000FE2F29D0660F771F881FBB1F261737074807AB07B0E809F0BB0B802DBF01FF2741
:2047600093585F4F3AF09E3F510578F00C9446220C9491225F3FE4F3983ED4F38695779547
:204780006795B795F7959F5FC9F7880F911D9695879597F90895E1E0660F771F881FBB1F81
:2047A000621773078407BA0720F0621B730B840BBA0BEE1F88F7E09508950E94E423689418
:2047C000B1110C94912208950E94762288F09F5798F0B92F9927B751B0F0E1F0660F771FCB
:2047E000881F991F1AF0BA95C9F714C0B13091F00E949022B1E008950C949022672F782FFA
:204800008827B85F39F0B93FCCF3869577956795B395D9F73EF490958095709561957F4F82
:204820008F4F9F4F08950E947B1F08F48FEF0895DB018F939F930E94AD22BF91AF91A29F4A
:20484000800D911DA39F900DB29F900D1124089597FB072E16F4009407D077FD09D00E9453
:20486000702407FC05D03EF4909581959F4F0895709561957F4F0895A1E21A2EAA1BBB1B08
:20488000FD010DC0AA1FBB1FEE1FFF1FA217B307E407F50720F0A21BB30BE40BF50B661F26
:2048A000771F881F991F1A9469F760957095809590959B01AC01BD01CF0108952A0D3B1DBE
:2048C0004C1D5D1D6E1D7F1D801F911F08952A153B054C055D056E057F05800791070895FD
:2048E000AA1BBB1B51E107C0AA1FBB1FA617B70710F0A61BB70B881F991F5A95A9F7809580
:204900009095BC01CD010895EE0FFF1F0590F491E02D09940F931F93CF93DF9382309105FB
:2049200010F482E090E0E091C604F091C70430E020E0B0E0A0E0309799F42115310509F43D
:204940004AC0281B390B24303105D8F58A819B816115710589F1FB0193838283FE0111C0FB
:20496000408151810281138148175907E0F04817590799F4109761F012960C931297139621
:204980001C933296CF01DF91CF911F910F9108950093C6041093C704F4CF2115310551F0D8
:2049A0004217530738F0A901DB019A01BD01DF01F801C1CFEF01F9CF9093C7048093C60451
:2049C000CDCFFE01E20FF31F819391932250310939832883D7CF2091C4043091C504232BF7
:2049E00041F420910201309103013093C5042093C40420910001309101012115310541F4EC
:204A00002DB73EB74091040150910501241B350BE091C404F091C504E217F307A0F42E1B2E
:204A20003F0B2817390778F0AC014E5F5F4F2417350748F04E0F5F1F5093C5044093C4046C
:204A4000819391939FCFF0E0E0E09CCFCF93DF930097E9F0FC01329713821282A091C60487
:204A6000B091C704ED0130E020E01097A1F420813181820F931F2091C4043091C504281718
:204A8000390709F061C0F093C504E093C404DF91CF910895EA01CE17DF07E8F54A815B818E
:204AA0009E0141155105B1F7E901FB83EA8349915991C40FD51FEC17FD0761F48081918134
:204AC0000296840F951FE90199838883828193819B838A83F0E0E0E012968D919C91139777
:204AE0000097B9F52D913C911197CD010296820F931F2091C4043091C5042817390739F6E4
:204B0000309751F51092C7041092C604B093C504A093C404BCCFD383C28340815181840F5C
:204B2000951FC817D90761F44E5F5F4F88819981480F591F518340838A819B819383828387
:204B40002115310509F0B0CFF093C704E093C6049ECFFD01DC01C0CF13821282D7CFB0E0B0
:204B6000A0E0E5EBF5E20C94BA228C01009751F4CB010E948A248C01C801CDB7DEB7E0E1DD
:204B80000C94D622FC01E60FF71F9C0122503109E217F30708F49DC0D901CD91DC91119793
:204BA000C617D70798F0C530D10530F3CE0104978617970708F3C61BD70B2297C193D193F0
:204BC0006D937C93CF010E942625D6CF5B01AC1ABD0A4C018C0E9D1EA091C604B091C704D2
:204BE000512C412CF12CE12C109731F58091C4049091C5048815990509F05CC04616570608
:204C000008F058C08091000190910101009741F48DB79EB74091040150910501841B950BEE
:204C2000E817F90708F055C0F093C504E093C404F90171836083A0CF8D919C911197129606
:204C40006C90129713967C901397A815B90559F56C0142E0C40ED11CCA14DB0420F1AC01BE
:204C60004A195B09DA011296159780F06282738251834083D9016D937C93E114F10471F02A
:204C8000D7011396FC93EE93129776CF22968C0F9D1FF90191838083F301EFCFF093C70475
:204CA000E093C60469CF4816590608F42C017D01D3019ACFCB010E948A247C01009749F075
:204CC000AE01B8010E946C26C8010E942625870153CF10E000E050CFFB01DC0102C00190BD
:204CE0000D9241505040D8F70895FB01DC0101900D920020E1F70895FB01DC0141505040F0
:204D000048F001900D920020C9F701C01D9241505040E0F70895AEE0B0E0E1E9F6E20C94E6
:204D2000C6220D891E898F89988D26E02C831A83098397FF02C080E090E801979E838D833A
:204D4000AE01455E5F4F698D7A8DCE0101960E94BB264D815E8157FD0AC02F8138854217DC
:204D600053070CF49A01020F131FF80110822E96E4E00C94E222ABE0B0E0E1ECF6E20C94E4
:204D8000B8227C013B018A01FC0117821682838181FFC8C1CE0101965C01F7019381F301F7
:204DA00093FD859193FF81913F01882309F453C1853239F493FD859193FF81913F01853288
:204DC00029F4B70190E00E94AB28E7CF912C212C312CFFE1F31538F08B3211F190F48032F7
:204DE00009F1833229F137FC3CC020ED280F2A3050F536FE20C08AE0989E200D1124922E02
:204E000006C08D3291F0803371F7689430F8F30193FD859193FF81913F018111DACF21C0B3
:204E2000689431F8689432F8F2CF689433F8EFCF689434F8ECCFEAE02E9E200D1124222E56
:204E4000689435F8E4CF8E3229F436FC04C1689436F8DDCF8C3619F4689437F8D8CF88366D
:204E6000B1F2982F9F7D95549330E0F08336A1F18337C1F1833509F063C02801F2E04F0E4D
:204E8000511CF801C080D180692D70E036FC02C06FEF7FEFC6010E9495284C01689437F8D7
:204EA00082010AC00C5F1F4FFFE3F98388248394912C6501E89437F833FE2DC0522C8114AC
:204EC000910471F5552009F468CFB70180E290E00E94AB285A94F6CFF801808189830E5F09
:204EE0001F4FE4CF2801F2E04F0E511CF801C080D180692D70E036FC02C06FEF7FEFC601D5
:204F00000E94A0284C018201D5CFB70180E290E00E94AB282A942814190409F0B0F7CECF60
:204F2000F60137FC859137FE81916F01B70190E00E94AB2851105A94F1E08F1A9108BFCFED
:204F4000843619F0893609F077C0F80137FE6BC060817181828193810C5F1F4FF32DFF76EE
:204F60003F2E97FF09C090958095709561957F4F8F4F9F4F689437F82AE030E0A5010E9409
:204F8000DB28C82ECA188C2C432C36FE0CC0E89440F8C91440F434FE05C032FC03C0F32D42
:204FA000FE7E4F2E892C44FE95C0FE01EC0DF11D8081803309F087C0242D297E422E842D99
:204FC0008870582E43FC95C040FE8FC09C2C821418F42C0C922C981844FE91C0B70180E374
:204FE00090E00E94AB2842FE09C088E790E041FE02C088E590E0B7010E94AB28C91408F400
:205000008AC0CA94D12C9FEFC91AD90ACA0CDB1CF60182916F01B70190E00E94AB28AC14F3
:20502000BD04B1F74FCF60817181072E000C880B990B0E5F1F4F92CFD32CE894D4F82AE011
:2050400030E0853739F1232D297FD22E8F3601F148F48835A9F0F701868197812B96E2E17E
:205060000C94D422803749F08837A9F7D4FE02C06894D2F820E130E00DC06894D4F8F6CF86
:2050800034FE03C0822F8660D82E20E132E002C028E030E0F801D7FE0FC06081718182811E
:2050A00093810C5F1F4FA5010E94DB28C82ECA183D2CE89437F867CF6081718190E080E0F3
:2050C0000E5F1F4FF0CF42FC02C0839478CF8394839475CF842D867809F471CFF6CFB701FD
:2050E00080E290E00E94AB2883948214C0F3512C73CF522C5818821408F46ECFF8CF842D15
:20510000867809F47BCF8BE241FE80E247FC8DE2B70190E071CFB70180E390E00E94AB2822
:205120009A946CCF8FEF9FEF99CFFC010590615070400110D8F7809590958E0F9F1F08958D
:20514000FC016150704001900110D8F7809590958E0F9F1F08950F931F93CF93DF93182FDF
:20516000092FEB018B8181FD09C01FEF0FEF812F902FDF91CF911F910F91089582FF14C02B
:205180002E813F818C819D81281739073CF4E881F981CF0101969983888310838E819F8193
:2051A00001969F838E83E3CFE885F985812F0995892BA1F3DACFFA01AA27283051F1203192
:2051C00081F1E8946F936E7F6E5F7F4F8F4F9F4FAF4FB1E03ED0B4E03CD0670F781F891F99
:2051E0009A1FA11D680F791F8A1F911DA11D6A0F711D811D911DA11D20D009F468943F914A
:205200002AE0269F11243019305D3193DEF6CF010895462F4770405D4193B3E00FD0C9F7E0
:20522000F6CF462F4F70405D4A3318F0495D31FD4052419302D0A9F7EACFB4E0A6959795F3
:20524000879577956795BA95C9F700976105710508959B01AC010A2E06945795479537955C
:205260002795BA95C9F7620F731F841F951FA01D089513E0CEE9D3E004C0FE010E94842445
:205280002196CF39D107C9F7F894FFCF0000C80480006634676F680000000000063E1E00D7
:2052A000373320416E74686F6E790000000000000000000000000000000208490B00000025
:2052C00000300B3F0B0000000021058104AE046E05DF04BD04D10400000000530B5F0B0038
:2052E000000000CA034F0B0000000060068104F5065F06BC06D40647060D0A002F413D256A
:2053000030366400257320257300253032642573256300253033642573256300212573257E
:20532000632573256325730042616C6C6F6E20534E495200303030302E30304E0030303072
:2053400030302E3030570074657374002E006C6F6E6775657572206465206C61207472616C
:205360006D65203A2000204F6374657473000A0D5044552041505253000A0D4352430064A6
:205380006F6E650047474100474C4C00524D43005654470046315A4D4D2D350046315A4D5F
:2053A0004D2D320057494445312D310057494445322D32004578697420636F6E666967207F
:2053C0006D656E75005361766520636F6E6669670053686F7720636F6E6669670000FFFFBE
:2053E000FFFFFFFFFFFFFFFFFFFFFFFFFFFFFFFFFFFFFFFFFFFFFFFFFFFFFFFFFFFFFFFFCD
:2054000037FE81916F01B70190E00E94182B51105A94F1E08F1A9108BFCF843619F0893656
:2054200009F077C0F80137FE6BC060817181828193810C5F1F4FF32DFF763F2E97FF09C0BF
:2054400090958095709561957F4F8F4F9F4F689437F82AE030E0A5010E94482BC82ECA18A5
:205460008C2C432C36FE0CC0E89440F8C91440F434FE05C032FC03C0F32DFE7E4F2E892C8A
:2054800044FE95C0FE01EC0DF11D8081803309F087C0242D297E422E842D8870582E43FCA5
:2054A00095C040FE8FC09C2C821418F42C0C922C981844FE91C0B70180E390E00E94182BF7
:2054C00042FE09C088E790E041FE02C088E590E0B7010E94182BC91408F48AC0CA94D12CEB
:2054E0009FEFC91AD90ACA0CDB1CF60182916F01B70190E00E94182BAC14BD04B1F74FCFBD
:2055000060817181072E000C880B990B0E5F1F4F92CFD32CE894D4F82AE030E0853739F1BD
:20552000232D297FD22E8F3601F148F48835A9F0F701868197812B96E2E10C941E258037F5
:2055400049F08837A9F7D4FE02C06894D2F820E130E00DC06894D4F8F6CF34FE03C0822F48
:205560008660D82E20E132E002C028E030E0F801D7FE0FC060817181828193810C5F1F4FF2
:20558000A5010E94482BC82ECA183D2CE89437F867CF6081718190E080E00E5F1F4FF0CFF1
:2055A00042FC02C0839478CF8394839475CF842D867809F471CFF6CFB70180E290E00E943E
:2055C000182B83948214C0F3512C73CF522C5818821408F46ECFF8CF842D867809F47BCFEF
:2055E0008BE241FE80E247FC8DE2B70190E071CFB70180E390E00E94182B9A946CCF8FEF2C
:205600009FEF99CFFC010590615070400110D8F7809590958E0F9F1F0895FC016150704031
:2056200001900110D8F7809590958E0F9F1F08950F931F93CF93DF93182F092FEB018B8128
:2056400081FD09C01FEF0FEF812F902FDF91CF911F910F91089582FF14C02E813F818C81FA
:205660009D81281739073CF4E881F981CF0101969983888310838E819F8101969F838E8360
:20568000E3CFE885F985812F0995892BA1F3DACFFA01AA27283051F1203181F1E8946F9387
:2056A0006E7F6E5F7F4F8F4F9F4FAF4FB1E03ED0B4E03CD0670F781F891F9A1FA11D680FB6
:2056C000791F8A1F911DA11D6A0F711D811D911DA11D20D009F468943F912AE0269F11244F
:2056E0003019305D3193DEF6CF010895462F4770405D4193B3E00FD0C9F7F6CF462F4F7007
:20570000405D4A3318F0495D31FD4052419302D0A9F7EACFB4E0A6959795879577956795E3
:20572000BA95C9F700976105710508959B01AC010A2E06945795479537952795BA95C9F7D0
:20574000620F731F841F951FA01D089513E0CEECD3E004C0FE010E94CE262196CF3CD10742
:20576000C9F7F894FFCF0000680580006634676F680000000000063E1E00373320416E743B
:20578000686F6E790000000000000000000000000000003C09E90C00000000D00CDF0C004A
:2057A000000000D70537056405240695057305870500000000C40CF30C00000000FA03EFE5
:2057C0000C00000000480737052F084707A407BC072F072F413D253036640025732025731D
:2057E000002530326425732563002530336425732563002125732563257325632573004257
:20580000616C6C6F6E20534E495200303030302E30304E0030303030302E303057007465CC
:205820007374002E0041542B444D4F434F4E4E4543540D0A000A4572726F72207768696CAA
:205840006520636F6E6669677572696E67204452413831380041542B444D4F534554564F5F
:205860004C554D453D0041542B53455446494C5445523D002C0044524138313820636F6E05
:2058800066696775726174696F6E2066696E6973686564006C6F6E677565757220646520EC
:2058A0006C61207472616D65203A2000204F6374657473000A0D5044552041505253000A76
:2058C0000D43524300646F6E650047474100474C4C00524D43005654470041542B444D4F1C
:2058E00053455447524F55503D253031642C25732C25732C253034642C25632C253034649A
:205900000D0A0046315A4D4D2D350046315A4D4D2D320057494445312D31005749444532C6
:205920002D32004578697420636F6E666967206D656E75005361766520636F6E66696700DE
:2059400053686F7720636F6E66696700FFFFFFFFFFFFFFFFFFFFFFFFFFFFFFFFFFFFFFFF24
:20596000FFFFFFFFFFFFFFFFFFFFFFFFFFFFFFFFFFFFFFFFFFFFFFFFFFFFFFFFFFFFFFFF47
:20598000CF93DF93EC0181E0888F9B8D8C8D981305C0E889F989808185FD26C0F62E0B8D05
:2059A00010E00F5F1F4F0F731127E02E8C8DE8120CC00FB607FCFACFE889F989808185FF6B
:2059C000F5CFCE010E94082CF1CF8B8DFE01E80FF11DE35AFF4FF0829FB7F8940B8FEA8996
:2059E000FB89808180620AC09FB7F894EE89FF896083E889F98980818370806480839FBF86
:205A000081E090E0DF91CF911F910F91FF90EF900895CF93DF93EC01888D8823C9F0EA893D
:205A2000FB89808185FD05C0A889B9898C9186FD0FC00FB607FCF5CF808185FFF2CFA889B5
:205A4000B9898C9185FFEDCFCE010E94082CE7CFDF91CF9108953FB7F8948091C602909163
:205A6000C702A091C802B091C90226B5A89B05C02F3F19F00196A11DB11D3FBFBA2FA92F1A
:205A8000982F8827820F911DA11DB11DBC01CD0142E0660F771F881F991F4A95D1F708956A
:205AA0001F920F920FB60F9211242F933F938F939F93AF93BF938091C2029091C302A09191
:205AC000C402B091C5023091C10223E0230F2D3720F40196A11DB11D05C026E8230F029607
:205AE000A11DB11D2093C1028093C2029093C302A093C402B093C5028091C6029091C7021F
:205B0000A091C802B091C9020196A11DB11D8093C6029093C702A093C802B093C902BF9139
:205B2000AF919F918F913F912F910F900FBE0F901F9018950F931F93CF93DF93EC018881C0
:205B40009981009729F02A813B812617370788F48B016F5F7F4F0E949638009761F0998381
:205B600088831B830A832C813D81232B11F4FC01108281E001C080E0DF91CF911F910F9100
:205B80000895CF93DF93EC0188819981009711F00E940D38198218821D821C821B821A825A
:205BA000DF91CF910895EF92FF920F931F93CF93DF93EC017B018A01BA010E949A2D811194
:205BC00004C0CE010E94C12D07C01D830C83B701888199810E946A39CE01DF91CF911F913D
:205BE0000F91FF90EF900895FB01DC0111961C921E9213961C921E92129715961C921E92C3
:205C000014978617970749F0608171816115710521F0448155810C94D32D089561157105D1
:205C200079F0FB0101900020E9F73197AF01461B570BDC01ED91FC910280F381E02D0994AB
:205C400080E090E008950F931F93CF93DF93EC010E940E2E8C016EEE71E0CE010E940E2EFD
:205C6000800F911FDF91CF911F910F9108951F920F920FB60F9211242F933F934F935F93D3
:205C80006F937F938F939F93AF93BF93EF93FF938AEC92E00E94082CFF91EF91BF91AF9196
:205CA0009F918F917F916F915F914F913F912F910F900FBE0F901F9018951F920F920FB6A6
:205CC0000F9211242F938F939F93EF93FF93E091DA02F091DB028081E091E002F091E10261
:205CE00082FD12C090818091E3028F5F8F732091E402821751F0E091E302F0E0E653FD4F40
:205D0000958F8093E30201C08081FF91EF919F918F912F910F900FBE0F901F90189583306B
:205D200081F028F4813099F08230A1F008958730A9F08830B9F08430D1F4809180008F7DF5
:205D400003C0809180008F7780938000089584B58F7702C084B58F7D84BD08958091B000D4
:205D60008F7703C08091B0008F7D8093B0000895CF92DF92EF92FF926B017C01E091DA0213
:205D8000F091DB0282E08083C11481EED806E104F104B1F060E079E08DE390E0A7019601EB
:205DA0000E943937DA01C9010197A109B109B695A795979587959C01211580E13807B8F046
:205DC000E091DA02F091DB02108260E874E88EE190E0A70196010E943937DA01C901019775
:205DE000A109B109B695A795979587959C01E091D602F091D7023083E091D802F091D902D6
:205E000020831092E202E091DE02F091DF0286E08083E091DC02F091DD02808180618083A9
:205E2000E091DC02F091DD02808188608083E091DC02F091DD02808180688083E091DC02DD
:205E4000F091DD0280818F7D8083FF90EF90DF90CF900895FC01808191810C940D38EF92E3
:205E6000FF920F931F93CF93DF93EC01FB0104811581E080F180E114F104C9F001151105C5
:205E8000C9F08C819D81080F191FB801CE010E949A2D882361F0288139818C819D81B7019C
:205EA000820F931F0E946A391D830C8303C0CE010E94C12DCE01DF91CF911F910F91FF908B
:205EC000EF900895EF92FF920F931F93CF93DF93CDB7DEB729970FB6F894DEBF0FBECDBF4C
:205EE0008C01862FF80111821082138212821582148240E19E012F5F3F4F7901B90190E06C
:205F00000E94C436F70101900020E9F73197AF014E195F09B701C8010E94D32D29960FB66E
:205F2000F894DEBF0FBECDBFDF91CF911F910F91FF90EF900895CF93DF93EC0162E20E946D
:205F4000542164E0CE010E94482160E2CE010E9454214CE251E063EB72E0CE010E94FC1FFB
:205F60006FEFCE01DF91CF910C945421CF93DF93EC010E944C224FE163E371E0CE010E9406
:205F80009F20CE01DF91CF910C94E1212F923F924F925F926F927F928F929F92AF92BF92A7
:205FA000CF92DF92EF92FF920F931F93CF93DF9300D000D000D0CDB7DEB74C015E834D834E
:205FC000380188EC90E0801B910BC816D90608F4C60148EC50E0ED81FE814E1B5F0B48176A
:205FE000590708F4CA01290143E0569447944A95E1F748EC50E0421B530BE416F50608F4A1
:20600000A701E8ECF0E0E61BF70BE417F50708F4AF0121503109420F531F23E05695479556
:206020002A95E1F77301F1E0EF1AF108E80EF91E5B0133E0B694A7943A95E1F79501241907
:206040003509B901640F751F7A8369832D813E8121503109F901E80FF91FFC83EB83CF2C4F
:20606000072D262D642DC4010E941922272D462D642DC4010E94F82144E650E060E070E0A4
:20608000C4010E94FC1F64E2C4010E94542189E12D813E81829F3001839F700C112415014A
:2060A000260C371CE12CF12C6B817C818D819E816817790760F165012701460C571C8701F0
:2060C000020D131D080D191DE981FA81EC15FD05A0F0C601840D951D883E934018F4F80116
:2060E000648D01C060E06095C4010E944821FFEFCF1ADF0A0F5F1F4FE7CF2D813E812F5F9C
:206100003F4F3E832D8339E1E30EF11CCDCF26960FB6F894DEBF0FBECDBFDF91CF911F9149
:206120000F91FF90EF90DF90CF90BF90AF909F908F907F906F905F904F903F902F90089500
:206140002F923F924F925F926F927F928F929F92AF92BF92CF92DF92EF92FF920F931F93AD
:20616000CF93DF93CDB7DEB76B970FB6F894DEBF0FBECDBF9B8F8A8F5B011A01D22E1F838D
:206180000E833701C982DC0158962D913C9159972115310509F0E6C018968D919C911997F1
:2061A000681779070CF0CDC11A968D919C911B97481759070CF0C5C18C2C912CFB0126E0F1
:2061C000C29EE00DF11D1124FB87EA871E161F060CF0B7C1A40183E0440F551F8A95E1F7A9
:2061E0005D874C87CA01820D931D181619060CF0A8C157968C91811104C05FEA5D1508F415
:20620000D394AA8DBB8DED91FC9111970284F385E02DCD010995B5E0DB9EC0011124F50174
:206220003596FF87EE87BB82AA8225019C012A193B09398B288BA101485F5F4F5B8B4A8BBC
:20624000E889F989E40DF51DE650FC4C5491588761013D822C82888580FF13C0AA8DBB8D59
:20626000ED91FC91B981B13031F40484F585E02D2E813F8116C00684F785E02DEE80FF807F
:206280001AC0EE81FF81E615F705F1F0AA8DBB8DED91FC91B981B13051F40484F585E02D64
:2062A0009301A601B2018A8D9B8D09950DC00684F785E02D7301840194014C815D816A810F
:2062C0007B818A8D9B8D0995E885E695E887FFEFCF1ADF0A2C813D81280D391D3D832C8369
:2062E0004A895B89C416D50609F0B5CF5FEF451A550A8A819B81880D991D9B838A83AE85D9
:20630000BF854A165B0609F09BCFEE81FF81E615F70509F4F4C0EA8DFB8DA081B181F981B2
:20632000F13079F4B5016B5F7F4F5096ED91FC915197830128E030E0A1018A8D9B8D09958D
:20634000DEC06A857B85681979091E96ED91FC911F9773010C851D859401A1018A8D9B8D1B
:206360000995CDC0F9013496E491DE1AF901329685919491B7E0DB9E800D911D1124F9014A
:20638000259134913B8B2A8BFC01259134912901FC013296C490319634913E87329614918E
:2063A0003196D4904981423058F0612E012E000C77088D2D0D2C000C990B9987888704C04F
:2063C00019861886612C712CAA8DBB8DED91FC9111970284F385E02DCD010995B9818B2EBA
:2063E000912C689CC001699C900D789C900D1124FC01EA0DFB1DFD87EC871A82712C612CCA
:20640000E12F110FFF0B95012E0F3F1F3B872A87AC0CB11CA5014E0F5F1F5F8B4E8BC10113
:206420008D0D911DD7FC9A95998F888F9E85691608F065C0862D90E048855985480F591F77
:20644000489D9001499D300D589D300D1124D101A20FB31FB98BA88BEC85FD85FD83EC838E
:20646000AA84BB84DA80FA85DF1A288D398D280F391F3D8B2C8B8D2D8A0D4E895F89A4168A
:20648000B506C1F1877041F4C2010196EA89FB89E40DF51D74902C0177FE21C0AA8DBB8D09
:2064A000ED91FC91B981B13061F40484F585E02D2E813F814C895D89B5018A8D9B8D099595
:2064C0000EC00684F785E02DEE80FF8084019401488959896C817D818A8D9B8D0995770CD6
:2064E000EFEFAE1ABE0A2C813D81280D391D3D832C83C1CF3A813C0D3A83639497CFAA8DE4
:20650000BB8DED91FC9111970688F789E02DCD016B960FB6F894DEBF0FBECDBFDF91CF917F
:206520001F910F91FF90EF90DF90CF90BF90AF909F908F907F906F905F904F903F902F90E9
:2065400009946B960FB6F894DEBF0FBECDBFDF91CF911F910F91FF90EF90DF90CF90BF900B
:20656000AF909F908F907F906F905F904F903F902F900895CF93DF93282F30E0F901EA5117
:20658000FC4C8491F901EE52FC4CD491F901E254FC4CC491CC2391F081110E948F2EEC2F6E
:2065A000F0E0EE0FFF1FEC54FC4CA591B491EC91ED2381E090E021F480E002C080E090E088
:2065C000DF91CF9108951F93CF93DF93282F30E0F901EA51FC4C8491F901EE52FC4CD491E8
:2065E000F901E254FC4CC491CC23C1F0162F81110E948F2EEC2FF0E0EE0FFF1FE655FC4C6F
:20660000A591B4919FB7F894111104C08C91D095D82302C0EC91DE2BDC939FBFDF91CF91D5
:206620001F910895CF93DF9390E0FC01EE52FC4C2491FC01E254FC4C8491882361F190E092
:20664000880F991FFC01E056FC4CC591D491FC01E655FC4CA591B491611109C09FB7F8949D
:206660008881209582238883EC912E230BC0623061F49FB7F8948881322F3095832388836A
:20668000EC912E2B2C939FBF06C08FB7F894E8812E2B28838FBFDF91CF9108958F929F92F5
:2066A000AF92BF92CF92DF92EF92FF926B017C010E942B2D4B015C01C114D104E104F10454
:2066C000F1F00E942B2DDC01CB0188199909AA09BB09883E9340A105B10570F321E0C21A47
:2066E000D108E108F10888EE880E83E0981EA11CB11CC114D104E104F10419F7DDCFFF9061
:20670000EF90DF90CF90BF90AF909F908F900895789484B5826084BD84B5816084BD85B5B6
:20672000826085BD85B5816085BD80916E00816080936E001092810080918100826080934D
:20674000810080918100816080938100809180008160809380008091B10084608093B10042
:206760008091B00081608093B00080917A00846080937A0080917A00826080937A008091AD
:206780007A00816080937A0080917A00806880937A001092C10060E072EC81E090E00E949D
:2067A000B82E6EEE71E08AEC92E00E940E2E6CE172E08AEC92E00E94232E40E052EC61E067
:2067C00070E087E693E00E949F1F62E272E08AEC92E00E94232E44244394512CB9E96B2EC1
:2067E000B3E37B2E01E010E028E833E140E050E061E170E287E693E00E949C1E60ED77E0A1
:2068000080E090E00E944E3328E833E140E050E069E87CE087E693E00E949C1E68E873E184
:2068200080E090E00E944E336FEF7FEF87E693E00E94EB1DAA24A394B12CC12CD12CF8EC5F
:20684000EF2EF12C08EC10E020E030E040E050E061E170E287E693E00E94A81E87E693E0FE
:206860000E94902568E873E180E090E00E944E3380916F03909170034C0120E4821A91088D
:2068800097FE04C04C01EFE38E1A9108959487946FEF7FEF87E693E00E94EB1DAA24A394A0
:2068A000B12CC12CD12C74EBE72EF12C00E410E025E030E0A40169EE76E087E693E00E94C3
:2068C000A81E87E693E00E94902564EF71E080E090E00E944E33C5E0D0E0209171033091E9
:2068E0007203CE0187549F4F2817390790F16FEF7FEF87E693E00E94EB1D36E0A32EB12C71
:20690000C12CD12C44EBE42EF12C00E410E09E01A40169EE76E087E693E00E94A81E009191
:2069200071031091720320916F0330917003EE24E39440E050E060E070E087E693E00E948B
