:200000000C94AE010C94D6010C94D6010C94D6010C94D6010C94D6010C94D6010C94D60150
:200020000C94D6010C94D6010C94D6010C94D6010C94D6010C94D6010C94D6010C94D60108
:200040000C94CB140C94D6010C9499140C9473140C94D6010C94D6010C94D6010C94D6015A
:200060000C94D6010C94D6010A534E373634383920636C6F636B3A20000A56474D20766560
:200080007273696F6E3A203078000A46696C65206E6F7420666F756E642E000A0A56474DD0
:2000A0002066696C653A20000A466F6C6465723A20000A000A000000000800020100000344
:2000C000040700000000000000000A534420696E6974206661696C21000A456E7375726547
:2000E0002073657269616C206D6F6E69746F72206C696E6520656E64696E6720697320734C
:20010000657420746F206E65776C696E652E000A5B4D445F534E37343638392056474D2091
:20012000506C6179657220434C495D000A496E76616C696420636D643A2000000000002559
:200140000028002B0000000000240027002A000404040404040404020202020202030303A2
:20016000030303010204081020408001020408102001020408102009000A000A0068000074
:200180007811000000000000000000000068656C700000000000000000000000000000002D
:2001A00000000000000000000000000000000000000000000000000000000000000000003F
:2001C000003F00007811000000000000000000000068656C700000000000000000000000AE
:2001E0000000000000000000000000000000000000000000000000000000000000000000FF
:2002000000000000006600002913666C6472000000000000007365742063757272656E7425
:2002200020666F6C64657220746F20666C6472000000000000000000000000000000000057
:200240000000000000000000006C00007A1100000000000000000000006C697374206669FC
:200260006C657320696E2063757272656E7420666F6C646572000000000000000000000084
:2002800000000000000000000000000000700000DA1366696C6500000000000000706C6124
:2002A0007920746865206E616D65642066696C65000000000000000000000000000000007F
:2002C00000000000000000000000000000000000007300008A0A0000000000000000000017
:2002E0000073746F7020706C6179696E672063757272656E742066696C6500000000000041
:200300000000000000000000000000000000000000000000007A0000920A000000000000C7
:200320000000000000736F667477617265207265736574000000000000000000000000000F
:200340000000000000000000000000000000000000000000000000000000151511241FBE61
:20036000CFEFD8E0DEBFCDBF11E0A0E0B1E0EAECF2E302C005900D92A235B107D9F725E0D7
:20038000A2E5B1E001C01D92A533B207E1F711E0CEEAD1E004C02197FE010E943119CD3AA4
:2003A000D107C9F70E94C7150C9463190C94000090E0FC01ED59FE4F2491815B9E4FFC01F0
:2003C0008491882399F090E0880F991FFC01EB5BFE4FA591B491FC01E55CFE4F8591949144
:2003E0008FB7F894EC91E22BEC938FBF0895EF92FF920F931F93CF93DF938C017B01D0E044
:20040000C0E0F701EC0FFD1F6491662361F0D801ED91FC910190F081E02DC8010995892B50
:2004200011F02196EECFCE01DF91CF911F910F91FF90EF900895AF92BF92CF92DF92EF92C8
:20044000FF920F931F93CF93DF936C017B018B01040F151FEB015E01AE18BF08C017D107A0
:2004600059F06991D601ED91FC910190F081E02DC6010995892B79F7C501DF91CF911F9179
:200480000F91FF90EF90DF90CF90BF90AF900895FC01538D448D252F30E0842F90E0821BE3
:2004A000930B541710F0CF96089501970895FC01918D828D981761F0A28DAE0FBF2FB11D2A
:2004C0005D968C91928D9F5F9F73928F90E008958FEF9FEF0895FC01918D828D981731F00C
:2004E000828DE80FF11D858D90E008958FEF9FEF0895FC01918D228D892F90E0805C9F4F64
:20050000821B91098F73992708958FE591E00E94790221E0892B09F420E0822F089580E0E3
:2005200090E0892B29F00E94850281110C9400000895FC01A48DA80FB92FB11DA35ABF4FE0
:200540002C91848D90E001968F739927848FA689B7892C93A089B1898C91837080648C934D
:20056000938D848D981306C00288F389E02D80818F7D80830895EF92FF920F931F93CF9351
:20058000DF93EC0181E0888F9B8D8C8D98131AC0E889F989808185FF15C09FB7F894EE8918
:2005A000FF896083E889F98980818370806480839FBF81E090E0DF91CF911F910F91FF9024
:2005C000EF900895F62E0B8D10E00F5F1F4F0F731127E02E8C8D8E110CC00FB607FCFACF9A
:2005E000E889F989808185FFF5CFCE010E949902F1CFEB8DEC0FFD2FF11DE35AFF4FF08249
:200600009FB7F8940B8FEA89FB8980818062CFCFCF93DF93EC01888D8823B9F0AA89BB8945
:20062000E889F9898C9185FD03C0808186FD0DC00FB607FCF7CF8C9185FFF2CF808185FF9F
:20064000EDCFCE010E949902E9CFDF91CF91089590E0FC01EA54FF4F2491FC01ED59FE4F6F
:200660003491FC01E15BFE4FE491EE23C9F0222339F0233001F1A8F4213019F1223029F1DA
:20068000F0E0EE0FFF1FE55CFE4FA591B4918FB7F894EC91611126C030953E233C938FBF7C
:2006A00008952730A9F02830C9F0243049F7809180008F7D03C0809180008F77809380007E
:2006C000DFCF84B58F7784BDDBCF84B58F7DFBCF8091B0008F778093B000D2CF8091B00047
:2006E0008F7DF9CF3E2BDACF3FB7F8948091570190915801A0915901B0915A0126B5A89B6A
:2007000005C02F3F19F00196A11DB11D3FBFBA2FA92F982F8827BC01CD01620F711D811D1D
:20072000911D42E0660F771F881F991F4A95D1F708958F929F92AF92BF92CF92DF92EF9204
:20074000FF926B017C010E9474034B015C01C114D104E104F104B9F00E9474036819790914
:200760008A099B09683E73408105910580F321E0C21AD108E108F10888EE880E83E0981E9D
:20078000A11CB11CE4CFFF90EF90DF90CF90BF90AF909F908F9008952FB7F8946091530110
:2007A0007091540180915501909156012FBF08955F926F927F928F929F92AF92BF92CF9231
:2007C000DF92EF92FF920F931F93CF93DF93EC01862E8C0107591F4F61E0D8018C910E9499
:2007E00028035A805A94712C612C912CB12CA12CC52C052C000CDD087E01B7E6EB0EF11C40
:2008000057FC1FC0C60186199709A501940104C056954795379527958A95D2F7622F617008
:20082000EA81E150E519D7012D913C91E20FF32FF11D80810E942803BFEF6B1A7B0A5A9426
:20084000DFCF60E0F80180810E94280383E290E00197F1F761E0D8018C91DF91CF911F91D7
:200860000F91FF90EF90DF90CF90BF90AF909F908F907F906F905F900C9428030F931F9304
:20088000CF9307E512E0C0E060915E0280916002682B80915F028F70682B6C2B87E592E0A8
:2008A0000E94D803F80117861686C05E0C5E1F4FC03851F7CF911F910F9108950895CF9208
:2008C000DF92EF92FF920F931F93CF93DF93EC01FC01E25AFF4F8081882379F083E00E94DF
:2008E000D80183E28093B00089E08093B10083E08093B30081E08093B4008E01D12C7E016E
:200900008FE5E80EF11C8FE0C82EF801178A168AF1A2E0A2C6866F818985682B88858F70C3
:20092000682B6D29E881F9810280F381E02DCE010995F80117860C5E1F4FF0E2DF0E80E8A6
:20094000D812E3CFDF91CF911F910F91FF90EF90DF90CF900895EF92FF921F93CF93DF93CA
:20096000EC0110E07C0187E6E80EF11C812F012E000C990B2A812817190659F054F0D701B0
:20098000ED91FC91E80FF91F80810E94D8011F5FEDCFFE01E759FF4F80810E94D801CE01AF
:2009A000DF91CF911F91FF90EF900C945F04CF93DF93EC01E981FA81908181819CBD8DBD4A
:2009C000E981FA8160E082810E94280381E08B83DF91CF9108958EBD0DB407FEFDCF0895CC
:2009E0008FEF8EBD0DB407FEFDCF8EB508950F931F93CF93DF93EC010E94CC038B010E9408
:200A0000F0048F3F69F00E94CC03601B710BC617D707A8F780E0DF91CF911F910F910895DC
:200A200081E0F9CFCF93DF93FC012381222361F0EC010180F281E02D61E082810E94280383
:200A40008FEF0E94EB041B82DF91CF910895DF92EF92FF920F931F93CF93DF938C01C62F50
:200A6000D22FF32EE42ED52EFC018381811103C0C8010E94D704CC2321F08CE291E00E9422
:200A8000F7048C2F80640E94EB048D2D0E94EB048E2D0E94EB048F2D0E94EB048D2F0E94E9
:200AA000EB0487E8C11101C085E90E94EB040E94F004CBE00E94F004F801848387FF02C027
:200AC000C150C1F7DF91CF911F910F91FF90EF90DF9008950F931F93CF93DF93EC01890174
:200AE0008D81833039F089E0440F551F661F771F8A95D1F79A01AB0168E1CE010E942705AD
:200B0000882319F082E3888339C08EEF0E94EB04F80180818EBD818132961E5F0DB407FE58
:200B2000FDCF8EBDE017F10711F08191F7CF0DB407FEFDCF8FEF0E94EB048FEF0E94EB0426
:200B40000E94F0048C838F71853099F480ED97E00E94F704182F8AE51123A9F220E030E098
:200B6000A9016DE0CE010E942705882361F089E2CACF87E58883CE010E941205CE010E9471
:200B8000120510E007C00E94F0048111F0CFCE010E941205812FDF91CF911F910F910895AB
:200BA000EF92FF920F931F93CF93DF93EC0179018D81833039F089E0440F551F661F771F5F
:200BC0008A95D1F79A01AB0161E1CE010E942705882339F080E38883CE010E94120580E0DE
:200BE00037C00E94CC038B010E94F0048C838F3F69F40E94CC03601B710B693E7340A0F3DC
:200C000085E58883CE010E941205E6CF8E3F11F080E5F7CF8FEF8EBDF701D701A150BE4F92
:200C20009FEF0DB407FEFDCF8EB59EBD8193AE17BF07B9F70DB407FEFDCF8EB58C931C8215
:200C40000E94F0040E94F004CE010E94120581E0DF91CF911F910F91FF90EF900895EF9233
:200C6000FF921F93CF93DF93FC01208111E020FF14C0EC017C01F7E0EF0EF11C4B815C81E7
:200C80006D817E81E981FA819701808191810E946A05182F811108C010E0812FDF91CF91B5
:200CA0001F91FF90EF900895888181FD04C088818E7F8883F2CFE981FA814B815C816D8130
:200CC0007E8184859585A685B785480F591F6A1F7B1F9701808191810E946A058111E7CF95
:200CE000DBCFCF92DF92EF92FF921F93CF93DF93EC016A017B01122F8B819C81AD81BE8135
:200D00008C159D05AE05BF05B1F0CE010E942F0681110AC090E080E0DF91CF911F91FF9097
:200D2000EF90DF90CF90089512FF0CC01882CB82DC82ED82FE8213708881182B1883CE017F
:200D40000796EACFE981FA819E01295F3F4FB701A601808191810E94D0058111E7CFDACFC9
:200D60008F929F92AF92BF92CF92DF92EF92FF920F931F931092EA0241E050E060E070E0E8
:200D80004093ED025093EE026093EF027093F00225EE32E03093070320930603109205038D
:200DA0004FEF5FEFBA01409308035093090360930A0370930B03882309F450C020E040E036
:200DC00050E0BA0185E093E00E947106009761F480E01F910F91FF90EF90DF90CF90BF9070
:200DE000AF909F908F900895FC01E254FE4F20812F7771F78A539E4FFC01C080D180E280E0
:200E0000F380C114D104E104F10411F320E0B701A60185E093E00E947106FC01892BC1F223
:200E2000838594858115924099F68089823081F686859785892B61F225852093E7028FEF76
:200E4000820F8093E80280E091E0291769F08F5F893041F488E08093E902BACFC12CD12CE5
:200E60007601D4CF990FF1CF8093E9024689578970E060E04115510521F444A155A166A110
:200E800077A14093F1025093F2026093F3027093F4022685378546015701820E931EA11CB8
:200EA000B11C8092F9029092FA02A092FB02B092FC02218932893093EC022093EB02440FC2
:200EC000551F661F771F480D591D6A1D7B1D4093010350930203609303037093040321892D
:200EE0003289A5E0220F331FAA95E1F721503E4F232F33272695420F531F611D711D409311
:200F0000F5025093F6026093F7027093F8020389148930E020E00115110521F400A111A149
:200F200022A133A1C41AD50AE60AF70AC00ED11EE21EF31E04C0F694E794D794C7948A95F0
:200F4000D2F7D701C6010196A11DB11D8093FD029093FE02A093FF02B093000385EFC81605
:200F60008FE0D806E104F10420F48CE08093EA022FCF80E125EFC2162FEFD206E104F104B0
:200F800068F084A595A5A6A5B7A58093010390930203A0930303B093040380E28093EA02CC
:200FA00081E017CF8F929F92AF92BF92CF92DF92EF92FF920F931F9342305105610571052A
:200FC00060F480E01F910F91FF90EF90DF90CF90BF90AF909F908F900895FC01C08CD18C12
:200FE000E28CF38CC416D506E606F70650F3480159016A017B018581803241F58489958980
:20100000A689B78917E076956795579547951A95D1F7480F591F6A1F7B1F23E0CF01809649
:201020000E947106009769F2E894C7F8DD24EE24FF24CC0CDD1CCC0CDD1C8C0D9D1DFC0142
:2010400080829182A282B38281E0BCCF803109F0B8CF44895589668977894D0D511D611D25
:20106000711D23E0CF0180960E947106009709F4A8CFDD24EE24FF24CC0CDD1CC80ED91E01
:20108000F60111830083E0CFCF92DF92EF92FF920F931F93CF93DF934230510561057105E3
:2010A00050F48FEFDF91CF911F910F91FF90EF90DF90CF900895FC01C08CD18CE28CF38C42
:2010C000C416D506E606F70660F389016A017B01EC0185818032B9F584899589A689B789C1
:2010E000E7E07695679557954795EA95D1F7480F591F6A1F7B1F22E0CE0180960E94710621
:20110000009779F2E894C7F8DD24EE24FF24CC0CDD1CCC0CDD1C8C0D9D1DFC018081918157
:20112000A281B381BF70488D598D6A8D7B8D481759076A077B0738F1F80180839183A2835F
:20114000B38381E0AFCF803109F0ABCF44895589668977894D0D511D611D711D22E0CF0116
:2011600080960E947106009709F49BCFDD24EE24FF24CC0CDD1CC80ED91EF6018081918164
:20118000B0E0A0E0D0CF80E08DCFFC019C01255F3F4F80E080FB879587F99191890F2E17C2
:2011A0003F07C1F70895CF93DF93FC012081211104C081E0DF91CF910895EC01828182FFED
:2011C00039C044895589668977898681978121E080960E947106009729F489818160898382
:2011E00080E0E8CFEC81FD81EF70FF2725E0EE0FFF1F2A95E1F7E80FF91F309771F3808176
:20120000853E59F3888183FF08C0888D998DAA8DBB8D848F958FA68FB78F8C8D9D8D938F9B
:20122000828F8C8D9D8DAE8DBF8DB58BA48B8A818B7F8A838E819F8180960E942F0688237B
:2012400061F2B7CF4F925F926F927F928F929F92AF92BF92CF92DF92EF92FF920F931F93B5
:20126000CF93DF93EC014A015B014C845D846E847F84A881AA2309F486C0488959896A8981
:201280007B89481559056A057B0569F081149104A104B10451F41C861D861E861F86888ADE
:2012A000998AAA8ABB8A81E073C0A3FF59C0088D198D2A8D3B8D081519052A053B0508F4E3
:2012C00062C0EE81FF81848190E009968A019B010150110921093109082E04C03695279572
:2012E000179507950A94D2F775016401B1E0CB1AD108E108F10804C0F694E794D794C794A4
:201300008A95D2F7C016D106E206F30628F0452B462B472B09F052C0A6FF4BC0848D958DFE
:20132000A68DB78D8C879D87AE87BF878E01045F1F4FC114D104E104F10409F4B0CF4C8553
:201340005D856E857F8598018E819F810E94440891E0C91AD108E108F108181654F313C0A7
:20136000A5FFAFCFEE81FF818681978125E0880F991F2A95E1F7B0E0A0E088159905AA0558
:20138000BB0508F08CCF4C865D866E867F8680E0DF91CF911F910F91FF90EF90DF90CF9030
:2013A000BF90AF909F908F907F906F905F904F9008958C8D9D8DAE8DBF8DB4CFC01AD10AD6
:2013C000E20AF30AB3CFCF93DF93EC010E94D3081882DF91CF9108953F924F925F926F92B9
:2013E0007F928F929F92AF92BF92CF92DF92EF92FF920F931F93CF93DF9300D000D0CDB7C8
:20140000DEB74C01FC01828184608283A680B7804484558466847784F501C084D184E28429
:20142000F384C414D504E604F70410F011E003C07301620110E0FFEFCF1ADF0AEF0AFF0A62
:20144000F501808D918DA28DB38D8C159D05AE05BF0538F4111131C0C084D184E284F3848D
:20146000E5CF4C145D046E047F0439F19E012F5F3F4FB701A601C5010E94440887FD1DC0A9
:201480008823C9F289819A81AB81BC81892B8A2B8B2B89F6112329F0F501C086D186E28672
:2014A000F3860FEF1FEF2FEF3FE0B701A601C5010E94D207382E811118C0312C832D0F904E
:2014C0000F900F900F90DF91CF911F910F91FF90EF90DF90CF90BF90AF909F908F907F9048
:2014E0006F905F904F903F900895411451046104710431F4F401C486D586E686F786DECFDA
:2015000097018601B301A201C5010E94D2078111F1CFD3CF0E943E0410925E0185EC92E058
:201520000C94E309F0E0E0E0099404960C94D30890E080E00895CF92DF92EF92FF920F93EA
:201540001F93CF93DF93FC0180E2DF011D928A95E9F7EB01AE81BF81B783A68355834483BB
:20156000CC8CDD8CEE8CFF8CC086D186E286F3864F705527ED01A79695E0440F551F9A9556
:20158000E1F7BE01640F751FEB018B8583FD49C0CD01840F951FEC018AA987718083EB010C
:2015A0009B85987111F488608083238381E0828393960D911D912D913C919697048B158BAA
:2015C000268B378BA40FB51FDB964D915C91DC9770E060E0BA0155274427ED01CF5BDF4FEA
:2015E0000881198130E020E0402B512B622B732B448F558F668F778FAD5BBF4F8D919D9192
:201600000D90BC91A02D808F918FA28FB38F81E0DF91CF911F910F91FF90EF90DF90CF9014
:201620000895108280E0F4CFFC01808181110FC080E2DF01982F1D929A95E9F7778366834F
:20164000DB0115969C91903129F0903211F080E0089580E4808381E0828308958F929F9280
:20166000AF92BF92DF92EF92FF920F931F93CF93DF93EC017B012881222309F4BBC08A8153
:2016800080FFB8C088889988AA88BB8823FF21C0888D998DAA8DBB8D88199909AA09BB0936
:2016A00082309105A105B10518F5009709F530E020E0A901481B590BCA01DF91CF911F9118
:2016C0000F91FF90EF90DF90BF90AF909F908F90089525FF0DC0EE81FF818681978135E060
:2016E000880F991F3A95E1F78815990509F488C084011170EE81FF81B501A40189E07695B0
:201700006795579547958A95D1F725FF27C0848D958DA68DB78D480F591F6A1F7B1F8E8168
:201720009F8120E080960E947106009709F462C0800F911FFC018081F70180838889998939
:20174000AA89BB890196A11DB11D888B998BAA8BBB8B21E030E090E080E0ABCFD380D42299
:201760000115110581F4D1100EC089288A288B2881F526FF29C0848D958DA68DB78D8C87C2
:201780009D87AE87BF87EE81FF814C855D856E857F854250510961097109848104C0440F25
:2017A000551F661F771F8A95D2F780899189A289B389840F951FA61FB71FAC01BD014D0D81
:2017C000511D611D711DABCF8C8D9D8DAE8DBF8DD6CF4C855D856E857F859E01245F3F4F4C
:2017E000CF010E94440887FD05C08111CCCF8881807749F48981826089838FEF9FEF5DCF48
:2018000030E020E0A8CF21E030E081E090E051CFCF93DF931F92CDB7DEB7BE016F5F7F4F46
:2018200085EC92E00E942E0B019731F4898190E00F90DF91CF9108958FEF9FEFF9CFCF9272
:20184000DF92EF92FF920F931F93CF93DF9300D000D0CDB7DEB7AC0170E060E085EC92E004
:201860000E942209CE0101967C016E0195E0C90ED11C87010E94080CF80181938F01EC1534
:20188000FD05C1F760E070E0CB01982F872F762F66272291622BEE15FF05B9F70F900F904E
:2018A0000F900F90DF91CF911F910F91FF90EF90DF90CF900895EF92FF920F931F93CF9389
:2018C000DF931F92CDB7DEB77C01962FF70140895189628973898A019B0185E036952795F5
:2018E000179507958A95D1F70F7011F0911129C0BE016F5F7F4FC7010E942E0B813051F0BE
:2019000090E080E00F90DF91CF911F910F91FF90EF900895F70180899189A289B3894F9626
:20192000A11DB11D808B918BA28BB38BF701868197818796F0E20F9F90011124820F931FCC
:20194000E1CF405E5F4F6F4F7F4F408B518B628B738BECCF2F923F924F925F926F927F923C
:201960008F929F92AF92BF92CF92DF92EF92FF920F931F93CF93DF93EC015B014A018881DA
:2019800083FFC5C08A8181FFC2C083FDB7C0A40170E060E088899989AA89BB898095909523
:2019A000A095B09584179507A607B70708F4AFC064011E018CE0280E311C088919892A8947
:2019C0003B89C114D10409F4E1C08E819F81B901A80129E076956795579547952A95D1F70A
:2019E000DC011396FC90F4221170F1101BC04C855D856E857F850115110509F0F4C0411589
:201A000051056105710509F488C091010E94440887FD7DC0811106C0CE010E94EC098823A5
:201A200009F475C0EE81FF814C855D856E857F854250510961097109848104C0440F551F7B
:201A4000661F771F8A95D2F780899189A289B389840F951FA61FB71FAC01BD014F0D511DE2
:201A6000611D711D0115110529F4C114B2E0DB0608F06EC080E092E0801B910B76018C1582
:201A80009D0508F47C010115110571F4488859886A887B88888D998DAA8DBB8D25E04816D7
:201AA00059066A067B0608F421E0CF0180960E947106009761F1A701B501800F911F0E94B2
:201AC00053190E0D1F1D0115124039F48E819F8180960E942F068823D1F088899989AA89C0
:201AE000BB898E0D9F1DA11DB11D888B998BAA8BBB8BAE0CBF1CCE18DF085FCF488D598DC2
:201B00006A8D7B8DCE010E942209811140CF8981816089838FEF9FEF4DC08C8D9D8DAE8DFB
:201B2000BF8D0097A105B10571F4CE010E94EC09882369F38C859D85AE85BF858C8F9D8FA3
:201B4000AE8FBF8F6FCF8C879D87AE87BF876ACF83A194A1A5A1B6A1481759076A077B0729
:201B600041F410A28FEF9FEFDC0183A394A3A5A3B6A3EE81FF819501808191810E946A05EE
:201B8000882329F2E12C82E0F82EA7CF888D998DAA8DBB8D80179107A207B30738F48A81F1
:201BA000088F198F2A8F3B8F84608A838A8187FD14C0C401DF91CF911F910F91FF90EF901C
:201BC000DF90CF90BF90AF909F908F907F906F905F904F903F902F900895CE010E94D30808
:201BE0008111E7CF94CFFC014250510961097109848104C0440F551F661F771F8A95D2F7DA
:201C000080899189A289B389480F591F6A1F7B1F31CF04960C94AA0CCF93DF931F92CDB74F
:201C2000DEB7698341E050E0BE016F5F7F4F04960E94AA0C0F90DF91CF9108952F923F92E7
:201C40004F925F926F927F928F929F92AF92BF92CF92DF92EF92FF920F931F93CF93DF93B0
:201C600000D01F92CDB7DEB77C017B836A83FA01DB018C91807709F4E3C0D7018C91811150
:201C8000DFC0C180D2808081837088248394882349F0C6010C966DE070E00E94F01888241B
:201CA0008394860E8F0140E050E0BA018A819B810E9422091982212C312C912C5801B6E0F9
:201CC000AB0EB11CEA81FB81408851886288738861E0CF010E945B0C009709F4B1C0DC0115
:201CE0002C91253E09F4A6C0222309F4C0C0381470F12E3251F1FC0133853F3009F05DC016
:201D0000911027C026FFDECF2F71922EF585F983222EE22DE150FF0BAF01FDE0F49F9001C8
:201D2000F59F300D11242C153D0578F4FC01712C64E06715B0F081819281C216D306D1F429
:201D4000892B19F4BFCF253EA1F6912CBBCF312CD0CF2A942211F9CF2585B9812B17C9F25D
:201D6000F4CF8AE0871518F084819581E6CF86819781E3CF8F3F910509F038F74FEB480FD4
:201D80004A3108F4805EB9016F5F7F4FD80113964D915C91240F351FD9019C912FEB290F6B
:201DA0002A3108F4905E9813D0CF73943296BDE07B1609F487CF9B01BBCF33FDC6CF9920A0
:201DC00061F1E1E02E123CC00E94C508F981F81337C0B301A20185E076956795579547953E
:201DE0008A95D1F7292D6A817B81C7010F900F900F90DF91CF911F910F91FF90EF90DF907D
:201E0000CF90BF90AF909F908F907F906F905F904F903F902F900C949B0A4BE050E0B501C7
:201E20000E944619892B09F04DCFD8018C9180FD49CFCFCF381408F088CF3394211183CFC9
:201E400080E00F900F900F90DF91CF911F910F91FF90EF90DF90CF90BF90AF909F908F906D
:201E60007F906F905F904F903F902F900895381420F3E6CF2F923F924F925F926F927F92D1
:201E80008F929F92AF92BF92CF92DF92EF92FF920F931F93CF93DF93CDB7DEB7E7970FB6F6
:201EA000F894DEBF0FBECDBF7C018A0119821A82DC018C918823D1F080E0E7960FB6F894CD
:201EC000DEBF0FBECDBFDF91CF911F910F91FF90EF90DF90CF90BF90AF909F908F907F9025
:201EE0006F905F904F903F902F900895FB018081807711F3DA018C91FA018F3209F4A2C0DF
:201F0000FE01F296FFABEEABF8019F012F5F3F4F8081803209F4AEC0FDA3ECA39F01A901AB
:201F20004E1B5F0B8901D9018D919D01882371F08F3209F0A1C0CF01840F951F8C01DC0106
:201F40002D91CD012032D1F32F32C1F3DA01AE0FBF1FAD014E1B5F0BEA17FB0709F4A6C06D
:201F60008E918E32B1F38032A1F34F3F510511F00CF0A2CF5BA34AA3DE0197966D0180E27F
:201F80008D93AEA8BFA8AA16BB06D1F7DF01CD018E1B9F0B2D912E32D1F32032C1F3772497
:201FA0007394009709F0712C9A01215031095F01A40EB51E2F3F320709F07BC08EA0512C3C
:201FC000B7E0BAAB312C612CA8E04A2E841795070CF0AEC0DF01A80FB91FAC90ADAAAA2DA1
:201FE000A03209F4A3C0AE3221F48217930709F09DC09DA8B92DB232A9F0BC3799F0BA5201
:20200000B63018F4A92DAD3269F4BDA9BA53B63048F0BDA9BB55B33028F0BDA9B152BE355E
:2020200008F451C08217930709F0C1C08AA98A3009F4C8C0C901BAE0BAABA8E03A2EB0E12A
:202040004B2E60C08F0181918F32E1F3DB0116966D917C91811104C0C7010E94140B2DCF42
:20206000CE0101960E94140BBE016F5F7F4F811147CF22CFF90149CF8C3509F41DCF982FC2
:20208000977F923209F418CF8A3309F415CF982F9F7B9C3309F410CF92EC980F923008F475
:2020A0000BCF80528F3508F43ACF06CF50E040E061CFD5019E905D01BEE29B1609F47ECF59
:2020C0002150310977CF8217930709F4AFCFBAA9B31508F470C0BDA9B156BA31D0F4ADA998
:2020E000A052ADAB542822242394230C5601A30CB11CD501ADA8AC92A6E0BA2E322CB21420
:2021000008F0822C019662CF712CBFE5BDABBFE59B2EBFEBB90DBA3130F76428E4CFC901B0
:20212000AAE0AAABA8E03A2EB0E14B2E712CEACF8EA28FA1803209F4BFCE772011F1852D89
:20214000862111F082E0582E59A2F8018081AE014F5D5F4F882339F1C7010E941E0E8823DB
:2021600009F4AACE80E2F701DE01119601900D928A95E1F7C7010E94E309BE016F5F7F4F32
:20218000C3CE81E089A3912CF601E80DF91D8EE78083E8E2F0E0EC0FFD1F8E0E9F1E81E37C
:2021A000D4018C93D2CFC7010E941E0E86CEAAA9A31508F0A9CFBAA9BA3021F02817390748
:2021C0000CF0ADCF8EA2712CB4CF6115710579F0FB0101900020E9F73197AF01461B570B1A
:2021E000DC01ED91FC910280F381E02D099490E080E00895FF920F931F93CF93DF93CDB7AD
:20220000DEB7C454D1090FB6F894DEBF0FBECDBF10E000E084E4F82E8091520290915302B7
:202220001817190608F057C060915402709155021F9D600D711D112444E450E0CE010196F8
:202240000E94D41825968FAD2597801759F06BE771E080915002909151020E94F70125968E
:202260000FAD259769E771E080915002909151020E94F701BE016F5F7F4F809150029091F5
:2022800051020E94E5108091500290915102DC01ED91FC910190F081E02D60E20995BE01E7
:2022A0006A5F7F4F80915002909151020E94E51067E771E080915002909151020E94F70109
:2022C000BE016F5E7F4F80915002909151020E94E5101F5FA1CFCC5BDF4F0FB6F894DEBF05
:2022E0000FBECDBFDF91CF911F910F91FF9008950C94FA102F923F924F925F926F927F9219
:202300008F929F92AF92BF92CF92DF92EF92FF920F931F93CF93DF93CDB7DEB7C855D109BD
:202320000FB6F894DEBF0FBECDBF1D821E821C821B8286E291E09A83898340E050E0BA01CF
:202340008CE095E00E9422098E010B5B1F4FCE0185967C014CE1742E50E1852E6EE2962E3E
:202360008D81811156C180910C05807709F451C180911C0590911D05A0911E05B0911F0550
:202380008F719927AA27BB27892B8A2B8B2B09F040C1D12CC12C20901C0530901D05409044
:2023A0001E0550901F0560E08CE095E00E945B0C009709F42EC1DC012C91222309F429C183
:2023C0002E3209F440C0253E09F43DC01B963C9133FD3BC0DD2021F00E94C5088C1119C1A6
:2023E000B201A10135E076956795579547953A95D1F72D2D6CE075E0CE0105960E949B0A61
:20240000882309F406C11DA21EA28D81882309F4FDC0988591116AC0807601F18FE2D80140
:202420008C9311961C9264EB70E08FE591E00E94F701B8018FE591E00E94E510CE0105966B
:202440000E94E3098DCFD12CA6CF3F30E1F726FFA2CF2F71D22EFC01C5849DCF498D5A8D34
:202460006B8D7C8D8B859C8520E080960E9471060097C9F2A985BA85AF70BB2725E0AA0F7D
:20248000BB1F2A95E1F7A80FB91F109761F29D0158E0D12C80E0F90191919F019032F1F0B0
:2024A000883039F4A8014D0D511DFA019082D39450E1B90161507109FB0190814FEB490F9D
:2024C0004A3130F41C964C911C97452309F0905EB8016D0D711DFB019083D3948F5F8B30EC
:2024E000D1F6F801ED0DF11D10829DCF8D859E85AF85B8896B857C850097A105B10509F08F
:202500006AC0C7010E94140B882309F47FC05801CC24C394D12C88858C1508F477C04985D5
:202520005A854C195D0970E060E085E0440F551F661F771F8A95D1F7C7010E9422098823F3
:2025400009F464C060E0C7010E945B0CFC01892B09F45CC083858F3009F058C080818F71A6
:20256000C81254C09501201B310B2F01A50160E0D201653008F040C011968D919C91009761
:2025800099F024313105D0F48F37910510F08FE390E02F5F3F4FDA018D93AD016F5FB2E000
:2025A0004B0E511C6D3021F72431310538F4808186FF04C0200F311FD9011C92D8015396D6
:2025C0001C92BDE0AB0EB11C2FEFC21AD20A808186FFA1CF28CFF701272D11922A95E9F7D9
:2025E0008DA221E02FA37CA76BA725968CAF9DAFAEAFBFAF25978BCF6B3020F414968D910A
:202600009C91BDCF16968D919C91B9CFD8011C920ACF62EB70E08FE591E00E94F701C85AE4
:20262000DF4F0FB6F894DEBF0FBECDBFDF91CF911F910F91FF90EF90DF90CF90BF90AF909B
:202640009F908F907F906F905F904F903F902F9008950F931F93CF93DF93CDB7DEB7A097AD
:202660000FB6F894DEBF0FBECDBF8C0168EA70E08FE591E00E94F701B8018FE591E00E9425
:20268000E51019821A82F80180818F3259F58181811128C08CE095E00E94E30965EE72E075
:2026A0008CE095E00E94140B811111C06EE271E08FE591E00E94E510A0960FB6F894DEBFD4
:2026C0000FBECDBFDF91CF911F910F91089580910C05807759F38CE095E090935C0180930B
:2026E0005B01EACFA8016CE075E0CE0101960E943A0F8823D9F289818077C1F280E2FE019F
:202700003196ACE0B5E001900D928A95E1F780910C05807701F7D0CF8F929F92AF92BF9216
:202720000F931F93CF93DF93CDB7DEB7A1970FB6F894DEBF0FBECDBF19A2423008F44AE086
:202740008E010F5D1F4F842E912CB12CA12CA50194010E940419E62FB901CA01EA3044F510
:20276000E05DD801EE938D01232B242B252B79F790E080E0109769F0FD0101900020E9F778
:202780003197AF014A1B5B0BBD018FE591E00E941B02A1960FB6F894DEBF0FBECDBFDF91A6
:2027A000CF911F910F91BF90AF909F908F900895E95CD7CF8F929F92AF92BF92CF92DF924F
:2027C000EF92FF92CF93DF93EC016BE970E08FE591E00E94F701BE018FE591E00E94E510C8
:2027E0008881882389F060915B0170915C01AE0185EC92E00E943A0F811109C06AE870E087
:202800008FE591E00E94F701D12CC12C55C090E080E00E941F0C6B017C0126E5C21627E6C4
:20282000D2062DE6E20620E2F20661F06EE371E08FE591E00E94E51040E1C701B6010E941A
:202840008C13E2CF88E090E00E941F0C6B017C0169E770E08FE591E00E94F70140E1C70192
:20286000B6010E948C138CE090E00E941F0C4B015C0168E670E08FE591E00E94F7014AE0C7
:20288000C501B4010E948C1380E5C81681E0D806E104F10410F184E390E00E941F0C6B010F
:2028A0007C0124E3C20ED11CE11CF11CB701A60185EC92E00E94220981E0CD2809F480E00B
:2028C00080935E01DF91CF91FF90EF90DF90CF90BF90AF909F908F90089580E4C82ED12C0A
:2028E000E12CF12CE3CF1F920F920FB60F9211242F933F934F935F936F937F938F939F933F
:20290000AF93BF93EF93FF938FE591E00E949902FF91EF91BF91AF919F918F917F916F91ED
:202920005F914F913F912F910F900FBE0F901F9018951F920F920FB60F9211242F938F93FF
:202940009F93EF93FF93E0916F01F09170018081E0917501F091760182FD1BC09081809102
:2029600078018F5F8F7320917901821741F0E0917801F0E0E15AFE4F958F80937801FF9177
:20298000EF919F918F912F910F900FBE0F901F9018958081F4CF1F920F920FB60F9211248F
:2029A0002F933F938F939F93AF93BF938091530190915401A0915501B0915601309152018D
:2029C00023E0230F2D3758F50196A11DB11D209352018093530190935401A0935501B0933D
:2029E00056018091570190915801A0915901B0915A010196A11DB11D80935701909358016C
:202A0000A0935901B0935A01BF91AF919F918F913F912F910F900FBE0F901F90189526E8A6
:202A2000230F0296A11DB11DD2CFEFE5F1E01382128288EE93E0A0E0B0E084839583A68390
:202A4000B78384E091E09183808385EC90E09587848784EC90E09787868780EC90E0918B45
:202A6000808B81EC90E0938B828B82EC90E0958B848B86EC90E0978B868B118E128E138E41
:202A8000148E1092EA0210920C0510920D0584E680932C051092310580E5809332051092C8
:202AA0003305A1ECB2E014961C92149715961C92159713961C921E92129786E291E08D930E
:202AC0009C93A7E5B2E088E012968C93129740E059E06DE370E013964D935D936D937C9350
:202AE000169790E817969C9317979FE018969C93189790E119969C9319971A961C921A970E
:202B000093E01B969C931B971C961C921C972FE31D962C931D9721E02093B5021092B602A0
:202B200028E230E03093B8022093B7022CE330E03093BA022093B9029093BB022BE430E087
:202B40003093BD022093BC022EE131E02D933C9322E131E03093BF022093BE028093C002F3
:202B600010924F0210924E02F0935102E093500287E090E090935302809352028DE791E03A
:202B80009093550280935402109256020895CF93DF9300D000D000D0CDB7DEB7789484B519
:202BA000826084BD84B5816084BD85B5826085BD85B5816085BD80916E00816080936E00FB
:202BC00010928100809181008260809381008091810081608093810080918000816080933E
:202BE00080008091B10084608093B1008091B00081608093B00080917A00846080937A008A
:202C000080917A00826080937A0080917A00816080937A0080917A00806880937A0010921F
:202C2000C100E0916F01F091700182E08083E0916F01F09170011082E0916B01F0916C016B
:202C40001082E0916D01F0916E0180E1808310927701E0917301F091740186E08083E091E0
:202C60007101F0917201808180618083E0917101F0917201808188608083E0917101F091E2
:202C80007201808180688083E0917101F091720180818F7D80836FE071E08FE591E00E94C7
:202CA000F70169ED70E08FE591E00E94F70187E592E00E94AB040E943E0410922F0510926C
:202CC0002C051092310582E395E090932E0580932D050E94CC038B01E0902D05F0902E0524
:202CE0008AE0D70112968C930E94D80161E0F70182810E942803FFB6F89480915D01811105
:202D000024C0E9E5F1E08491EDE6F1E09491E82FF0E0EE0FFF1FEB5BFE4FA591B491EC91C5
:202D2000E92321F461E08AE00E9428038AE00E94D8018CB580618CBD8CB580648CBD8DE0CF
:202D40000E94D8018BE00E94D80180915D018F5F80935D01FFBEE0912D05F0912E0582E5C9
:202D60008083118280912F05811104C08CE295E00E94D704E0912D05F0912E0561E0828127
:202D80000E942803EAE0FE2E8FEF0E94EB04FA94F110FACFE0912D05F0912E0560E082816F
:202DA0000E9428037AE0F72E20E030E0A90160E08CE295E00E942705E82EF1E08F17F9F0A6
:202DC000FA94F1100EC080E280932C058CE295E00E9412056AEC70E08FE591E00E94F7012F
:202DE000FFCF8DEF0E94EB0468E0C62E62E0D62E0E94F00421E0C21AD108D1F7D5CF2AEAAA
:202E000031E040E050E068E08CE295E00E94270554E0F52E853041F5E09231058091310527
:202E2000C12CD12CE12C40E4F42E823019F0C12CD12C760120E030E0A90167E38CE295E052
:202E40000E942705A701960169E28CE295E00E9427058823C1F00E94CC03601B710B613D07
:202E6000774040F383E4B0CF0E94F00480933005FA94F110F9CF8A3A21F482E080933105C9
:202E8000CDCF85E2A1CF809131058230D1F420E030E0A9016AE38CE295E00E94270588239E
:202EA00011F087E391CF0E94F004807C803C19F483E0809331050E94F0040E94F0040E9472
:202EC000F0048CE295E00E941205E0912D05F0912E0580E5808381E081838CE295E0909338
:202EE000E6028093E5028CE095E00E94E30981E00E94B006882309F471C065EE72E08CE0DE
:202F000095E00E94140B882309F464CF80910C05807709F45FCF8CE095E090935C018093E8
:202F20005B010E94FA1038EE232E33E0332E412C512C80915E018823B1F00E94080C8F3F74
:202F4000980709F4A3C08336910509F49AC00CF04BC08136910509F46DC00CF08DC0803550
:202F6000910509F45FC08091500290915102DC01ED91FC910084F185E02D0995892B09F48A
:202F8000D3C08091500290915102DC01ED91FC910284F385E02D09958A3009F0ADC06CEFBB
:202FA00071E085E292E00E945C198CEFE82E81E0F82EF7018081882309F499C0970189019C
:202FC000D9018C912F5F3F4F803209F4BAC08B3309F4E4C08111F3CF3801BFC080E00E9448
:202FE000B00681118ACFF6CE8636910509F44EC00CF4B9CF9C01205731092031310508F0BA
:20300000B2CF8F589F4FF7E1F89F9001F99F300D1124C901880F991F880F991F05970197B4
:20302000F1F7A1CF0E94080C682F87E592E00E94D80399CF0E94080C6C01DD240D2C000CBF
:20304000EE08FF080E94080C8C831B82EB81FC819F0150E040E02C293D294E295F29A7E1F6
:20306000B0E00E942619A20191010E940419CA01B9010E94990377CF61E170E080E090E080
:20308000F8CF64E170E080E090E0F3CF90E080E00E948A0A68CF8091560281110FC06CE2ED
:2030A00071E080915002909151020E94F701B70180915002909151020E94E510780179CF67
:2030C000E4E4EC9DB001ED9D700D1124680D791D6D5F7F4F42E050E0CE0101960E94D418C7
:2030E000E981FA81309751F3C3010995E7CF10924F0210924E0237CF20914E0230914F02CA
:203100002732310508F02FCFA9014F5F5F4F50934F0240934E0224503E4FD9018C9344503F
:203120005E4FFA0110821FCF80E090E0892B09F400CF0E948502882309F4FBCE0E940000DB
:20314000F8CE38019FEF691A790A1C92F3018F0181918B3321F18111FACFE0915202F09127
:203160005302FE83ED8380905402909055025401D12CC12C8D819E818C159D0509F48BCF26
:20318000B501C7010E94DD18A4E4AA0EB11C892B09F496CFBFEFCB1ADB0AECCF3801F80192
:2031A00010820F5F1F4FD9CFFB01DC0102C005900D9241505040D8F70895FB01DC018D91A6
:2031C00081341CF08B350CF4805E659161341CF06B350CF4605E861B611189F3990B0895CB
:2031E000AA1BBB1B51E107C0AA1FBB1FA617B70710F0A61BB70B881F991F5A95A9F7809597
:203200009095BC01CD010895A1E21A2EAA1BBB1BFD010DC0AA1FBB1FEE1FFF1FA217B307EF
:20322000E407F50720F0A21BB30BE40BF50B661F771F881F991F1A9469F760957095809596
:2032400090959B01AC01BD01CF0108950E943719A59F900DB49F900DA49F800D911D11245F
:203260000895EE0FFF1F0590F491E02D0994A29FB001B39FC001A39F700D811D1124911D8D
:20328000B29F700D811D1124911D0895FB01DC0104C08D910190801921F441505040C8F768
:2032A000881B990B0895FB01DC0102C001900D9241505040D8F70895FB01DC0101900D92C9
:2032C0000020E1F70895F894FFCF00000000BB021B0248020803790257026B020E0F101151
:2032E0000405060700000000AB04D803000000000C0E090E980A950A20756E61626C652005
:20330000746F207365742E000A4E6F7420612056474D2066696C653A20307800FFFFFFFFAC
:20332000FFFFFFFFFFFFFFFFFFFFFFFFFFFFFFFFFFFFFFFFFFFFFFFFFFFFFFFFFFFFFFFFAD
:20334000FFFFFFFFFFFFFFFFFFFFFFFFFFFFFFFFFFFFFFFFFFFFFFFFFFFFFFFFFFFFFFFF8D
:20336000FFFFFFFFFFFFFFFFFFFFFFFFFFFFFFFFFFFFFFFFFFFFFFFFFFFFFFFFFFFFFFFF6D
:20338000F1DF08C0161617061806991FF1CF86957105610508940895E894BB2766277727FD
:2033A000CB0197F90895AA1BBB1B51E107C0AA1FBB1FA617B70710F0A61BB70B881F991F80
:2033C0005A95A9F780959095BC01CD010895A1E21A2EAA1BBB1BFD010DC0AA1FBB1FEE1F1B
:2033E000FF1FA217B307E407F50720F0A21BB30BE40BF50B661F771F881F991F1A9469F753
:2034000060957095809590959B01AC01BD01CF010895052E97FB1EF400940E94201A57FD69
:2034200007D00E94E71907FC03D04EF40C94201A50954095309521953F4F4F4F5F4F089575
:2034400090958095709561957F4F8F4F9F4F0895EE0FFF1F0590F491E02D099491110C94DF
:203460003F1A803219F089508550C8F708959111089581568A5108F4805285580895992735
:2034800088270895F894FFCFA91AC4192E17C016FE15EE1450149F130C139012BA11D6102E
:2034A000FD0F110F4F0E8C0D250D800BEE097109B308FB0744077E067805B6040F034402A1
:2034C0004D016800000000009C10FC0F2910E9105A1038104C100E0F1011040506070000EB
:2034E0000000731261110A00FFFFFFFFFFFFFFFFFFFFFFFFFFFFFFFFFFFFFFFFFFFFFFFFE3
:2035000021F09EE8872F762F05C0662371F096E8862F70E060E02AF09A95660F771F881F4C
:20352000DAF7880F9695879597F9089597F99F6780E870E060E008959FEF80EC08950024C9
:203540000A941616170618060906089500240A9412161306140605060895092E0394000C1B
:2035600011F4882352F0BB0F40F4BF2B11F460FF04C06F5F7F4F8F4F9F4F089557FD905808
:20358000440F551F59F05F3F71F04795880F97FB991F61F09F3F79F08795089512161306CD
:2035A0001406551FF2CF4695F1DF08C0161617061806991FF1CF869571056105089408953A
:2035C000E894BB2766277727CB0197F908950E94FA1A0C94AD1A0E949F1A38F00E94A61A67
:2035E00020F0952311F00C94961A0C949C1A11240C94E11A0E94BE1A70F3959FC1F3950F23
:2036000050E0551F629FF001729FBB27F00DB11D639FAA27F00DB11DAA1F649F6627B00DA2
:20362000A11D661F829F2227B00DA11D621F739FB00DA11D621F839FA00D611D221F749F32
:203640003327A00D611D231F849F600D211D822F762F6A2F11249F5750409AF0F1F0882315
:203660004AF0EE0FFF1FBB1F661F771F881F91505040A9F79E3F510580F00C94961A0C94B5
:20368000E11A5F3FE4F3983ED4F3869577956795B795F795E7959F5FC1F7FE2B880F911D82
:2036A0009695879597F908959F930E945E1B0F9007FCEE5F0C94871B0C949C1A0E94C61A40
:2036C000D8F3E894E0E0BB279F57F0F02AED3FE049EC06C0EE0FBB0F661F771F881F28F059
:2036E000B23A62077307840728F0B25A620B730B840BE3959A9572F7803830F49A95BB0FED
:20370000661F771F881FD2F790480C949D1BEF93E0FF07C0A2EA2AED3FE049EC5FEB0E94E3
:2037200063190E94AD1A0F90039401FC9058E8E6F0E00C94A91B9F3F31F0915020F4879577
:2037400077956795B795880F911D9695879597F908959F938F937F936F93FF93EF939B0144
:20376000AC010E94E71AEF91FF910E94BD1B2F913F914F915F910C94E71ADF93CF931F93E8
:203780000F93FF92EF92DF927B018C01689406C0DA2EEF010E94FA1AFE01E894A591259124
:2037A000359145915591A6F3EF010E946319FE019701A801DA9469F7DF90EF90FF900F91B5
:2037C0001F91CF91DF910895EE0FFF1F0590F491E02D09940F931F93CF93DF93823091057D
:2037E00010F482E090E0E0911D02F0911E0230E020E0B0E0A0E0309799F42115310509F4E5
:203800004AC0281B390B24303105D8F58A819B816115710589F1FB0193838283FE0111C04C
:20382000408151810281138148175907E0F04817590799F4109761F012960C931297139672
:203840001C933296CF01DF91CF911F910F91089500931D0210931E02F4CF2115310551F07F
:203860004217530738F0A901DB019A01BD01DF01F801C1CFEF01F9CF90931E0280931D02F8
:20388000CDCFFE01E20FF31F819391932250310939832883D7CF20911B0230911C02232B9E
:2038A00041F4209102013091030130931C0220931B0220910001309101012115310541F493
:2038C0002DB73EB74091040150910501241B350BE0911B02F0911C02E217F307A0F42E1BD6
:2038E0003F0B2817390778F0AC014E5F5F4F2417350748F04E0F5F1F50931C0240931B0214
:20390000819391939FCFF0E0E0E09CCFCF93DF930097E9F0FC01329713821282A0911D0283
:20392000B0911E02ED0130E020E01097A1F420813181820F931F20911B0230911C0228176A
:20394000390709F061C0F0931C02E0931B02DF91CF910895EA01CE17DF07E8F54A815B8135
:203960009E0141155105B1F7E901FB83EA8349915991C40FD51FEC17FD0761F48081918185
:203980000296840F951FE90199838883828193819B838A83F0E0E0E012968D919C911397C8
:2039A0000097B9F52D913C911197CD010296820F931F20911B0230911C022817390739F68B
:2039C000309751F510921E0210921D02B0931C02A0931B02BCCFD383C28340815181840F5A
:2039E000951FC817D90761F44E5F5F4F88819981480F591F518340838A819B8193838283D9
:203A00002115310509F0B0CFF0931E02E0931D029ECFFD01DC01C0CF13821282D7CF911145
:203A20000C94201D803219F089508550C8F7089591110C94201D803211F08930D1F7089594
:203A4000992788270895F894FFCF00001F02800000000000FC17FD17FFFFFFFFFFFFFFFF40
:203A6000FFFFFFFFFFFFFFFFFFFFFFFFFFFFFFFFFFFFFFFFFFFFFFFFFFFFFFFFFFFFFFFF66
:203A8000D906D4F461507109EE24E394F12C860130E020E050E040E08BEC92E00E94530DDC
:203AA0000E94881461E070E080E090E00E946B07A4E0CA0ED11CDBCFD12CC12C6091D302B0
:203AC0007091D402C616D706F4F40091D5021091D6020150110961507109EE24E394F12C51
:203AE000960150E040E08BEC92E00E94530D0E94881461E070E080E090E00E946B07B4E0AD
:203B0000CB0ED11CDBCF60ED77E080E090E00E946B070E942816D12CC12C0091D5021091DA
:203B2000D602C80117FD019695958795C816D90604F5C601880F991F081B190B2091D3025A
:203B40003091D402281B390BEE24E394F12CA601B6018BEC92E00E94F40C0E94881461E039
:203B600070E080E090E00E946B07E2E0CE0ED11CD4CF60ED77E080E090E00E946B070E94B9
:203B80002816D12CC12C0091D5021091D602C80117FD019695958795C816D90604F5C601E5
:203BA000880F991F081B190B2091D3023091D402281B390B42E0E42EF12CA601B6018BECA5
:203BC00092E00E94E80D0E94881461E070E080E090E00E946B07F3E0CF0ED11CD4CF60ED9C
:203BE00077E080E090E00E946B070E9428161EA61DA6D12CC12CE090D302F090D4024090CE
:203C0000D5025090D6024E145F042CF4C701F7FE05C0019603C0C20157FCFBCF959587952E
:203C2000C816D9060CF0D6C057FE03C00FEF401A500A55944794F7FE03C01FEFE11AF10AEB
:203C4000F594E79401E010E00C191D0918A30F8F0DA51EA51AA709A721E030E0A601440DFC
:203C6000551DB7018BEC92E00E94A20F21E030E0A2014C195D09B7018BEC92E00E94A20F6B
:203C8000B6016E0D7F1D21E030E0A2018BEC92E00E94A20FB7016C197D0921E030E0A201EF
:203CA0008BEC92E00E94A20F160110E000E021E030E03EA32DA3021513050CF079C04F8DDF
:203CC00058A157FD0FC051E0251A310869A57AA56E5F7F4F7AA769A78F8D98A1860F971F86
:203CE00098A38F8F0F5F1F4FADA1BEA11296BEA3ADA3EF8DF8A1EA0FFB1FF8A3EF8F38010F
:203D00006E0C7F1C21E030E05201A20CB31CA501B3018BEC92E00E94A20F4701801A910A9A
:203D200021E030E0A501B4018BEC92E00E94A20F21E030E05201A218B308A501B3018BEC31
:203D400092E00E94A20F21E030E0A501B4018BEC92E00E94A20F5201A00EB11E21E030E015
:203D6000A5014701820C931CB4018BEC92E00E94A20F21E030E0A5015701A218B308B501ED
:203D80008BEC92E00E94A20F3201601A710A21E030E0A301B4018BEC92E00E94A20F21E018
:203DA00030E0A301B5018BEC92E00E94A20F83CF0E94881461E070E080E090E00E946B0758
:203DC000F2E0CF0ED11C0DA51EA5045011091EA70DA711CF60ED77E080E090E00E946B0783
:203DE0000E9428168091D3029091D4024091D5025091D602481759070CF046C097FD0196B9
:203E00006C01D594C7945601AA0CBB1C1FEFA11AB10A1C141D04F4F58090D5029090D602F0
:203E200097FE03C02FEF821A920A95948794E090D302F090D402F7FE03C03FEFE31AF30A15
:203E4000F594E794A4014C195D0902E010E09501B7018BEC92E00E94BB0E10E000E023E0A7
:203E6000A601B401C7010E94C70E0E94881461E070E080E090E00E946B0743E0C41AD1081A
:203E800056E0A51AB108C5CF57FF02C04F5F5F4F6A01B7CF60ED77E080E090E00E946B07F3
:203EA0000E942816D12CC12C4090D5025090D602C20157FC0196959587950297C816D90690
:203EC0000CF089C0720157FE03C063E0E60EF11CF594E794F594E794C601880F991F481A4E
:203EE000590A2090D3023090D402281A390A241435042CF4C10137FE05C0019603C0C20155
:203F000057FCFBCF959587958E159F050CF47C014701880C991C3101681879085601AE0CA5
:203F2000BF1C01E010E09301A601B5018BEC92E00E94AF0EC601840D951D98A38F8FAC018C
:203F4000415051099301B5018BEC92E00E94AF0E481859089201A501B6018BEC92E00E94A8
:203F6000BB0E2C0C3D1CB101615071099201A5018BEC92E00E94BB0E21E0A701B501C50158
:203F80000E94A90F2E183F0891E0291A310822E0A701B501C1010E94A90F0F8D18A10E1955
:203FA0001F090150110924E0A701B801C1010E94A90F28E0A701B801C5010E94A90F0E94C2
:203FC000881461E070E080E090E00E946B07A2E0CA0ED11C69CF60ED77E080E090E00E943B
:203FE0006B070E942816912C812CC090D502D090D602C601D7FC01969595879502978816F8
:2040000099060CF05CC05601D7FE03C0B3E0AB0EB11CB594A794B594A7949401220F331FC1
:20402000C21AD30A4090D3025090D402421A530A4C145D042CF4C20157FE05C0019603C09B
:20404000C601D7FCFBCF959587958A159B050CF45C013501660C771C14012A0C3B1C9201AA
:204060002619370912E0E12EF12C8601A401B1018BEC92E00E949F0EC618D708E1E0CE1A27
:20408000D108C401840D951D8A199B09860121E0A501B10101970E94C70E22E0A501B101AF
:2040A000C1010E94C70E0E94881461E070E080E090E00E946B07F2E08F0E911C96CF60ED46
:2040C00077E080E090E00E946B070E942816912C812CA090D302B090D402C090D502D090B9
:2040E000D602CA14DB042CF4C501B7FE05C0019603C0C601D7FCFBCF95958795881699068A
:204100000CF03FC0D7FE03C00FEFC01AD00AD594C79434016C0C7D1CB7FE03C01FEFA11A0F
:20412000B10AB594A79414012A0C3B1C250148185908C818D908EE24E394F12C8301920139
:20414000A601B5018BEC92E00E94530D9101A301B2018BEC92E00E94530D86019501A30182
:20416000B1018BEC92E00E94530D0E94881461E070E080E090E00E946B0725E0820E911CAD
:20418000A8CF60ED77E080E090E00E946B070E9428168091D3029091D402E090D502F0909C
:2041A000D602E816F9060CF050C07C0197FF03C03FEFE31AF30AF594E7941E141F040CF0CB
:2041C00010C18091D5029091D60297FD0196959587955701A80EB91E2091D3023091D402BA
:2041E00037FF02C02F5F3F4F359527954701820E931E6901CE18DF08BC016E197F0978A37E
:204200006F8FA616B7060CF4BAC4EF8DF8A1AE16BF0609F1442755274E195F09C5016F8D99
:2042200078A1861B970B9AA789A7D401AC19BD09BEA3ADA37AA369A346016901B8A2AF8E2F
:20424000BEAAADAA1EA61DA6B4C4F7FEB4CF4FEFE41AF40AB0CFC216D30654F0922F832F07
:204260002C153D0514F49C2D8D2D6901292F382F8C149D042CF0281539050CF49401460153
:20428000281939092F5F3F4F02E010E04F8D58A1B4018BEC92E00E94AF0E0E94881461E05C
:2042A00070E080E090E00E946B0745E0E41AF10884CFC1018A199B09ADA1BEA18A9F20015B
:2042C0008B9F500C9A9F500C1124052C000C660877089101E9A1FAA12E1B3F0B2E9DC0018E
:2042E0002F9D900D3E9D900D11248C01990F220B330B09A31AA32BA33CA32DA53EA5032E0C
:20430000000C440B550B2DA73EA74FA758AB49A55AA5052E000C660B770B49A75AA76BA70E
:204320007CA7BD01072E000C880B990B6DA37EA38FA398A7C7010F2C000CAA0BBB0B89ABC4
:204340009AABABABBCABAF8DB8A1A215B3050CF4A4CFC301B2012DA53EA54FA558A90E9421
:204360000E278401020F131F69A17AA18BA19CA129A53AA54BA55CA50E940E27B601620F15
:20438000731F2DA13EA14FA158A5420E531E641E751E89A19AA1ABA1BCA129A93AA94BA964
:2043A0005CA9820F931FA41FB51F89A39AA3ABA3BCA3601771072CF0962F872FB801092F91
:2043C000182F061B170B98012F5F3F4F02E010E0A1018BEC92E00E94AF0E3FEF231A330A3A
:2043E000B2CF60ED77E080E090E00E946B070E94281681E08093DF0221E030E03093DE02CB
:204400002093DD023093DC022093DB021092D8021092D7021092DA021092D9028093E202F0
:2044200010E000E060E20A30110509F0602F8BEC92E00E94230C0F5F1F4F011551E0150799
:2044400089F70E94881460ED77E080E090E00E946B070E94281681E08093DF0201E010E010
:204460001093DE020093DD021093DC020093DB021092D8021092D7021092DA021092D90264
:2044800061E47AE08BEC92E00E94D8161092DC021092DB021093DE020093DD022AE043E0E3
:2044A00050E060E070E08BEC92E00E9459166EE28BEC92E00E94230C2AE041E050E060E09D
:2044C00070E08BEC92E00E9459162AE044E050E060E070E08BEC92E00E9459166AE571E00A
:2044E0008BEC92E00E944A1622E0F22EF092DF021093DE020093DD021093DC020093DB0266
:204500006EE37AE08BEC92E00E94C90520E14FEE5EEB6DEA7EED8BEC92E00E9459166AE505
:2045200071E08BEC92E00E944A160E94881460ED77E080E090E00E946B070E942816F09217
:20454000DF021093DE020093DD021093DC020093DB028AE090E09093D8028093D70210922F
:20456000DA021092D90265E67AE08BEC92E00E94D8160E94881464E670E080E090E00E947A
:204580006B078091E7029091E802892B09F46BC26091FF0270910003809101039091020395
:2045A0000E94B31162E082E59AE00E94711360E08BEC92E00E94261460E08BEC92E00E947C
:2045C00026146FE08BEC92E00E94261463E08FE49AE00E9471138091E7029091E802892B7E
:2045E00009F458C2609103037091040380910503909106030E94B31160ED77E080E090E088
:204600000E946B070E94A31568EE73E080E090E00E946B078091E7029091E802892B09F4E9
:2046200043C26091FF027091000380910103909102030E94B31162E087E59AE00E94711390
:2046400060E08BEC92E00E94261460E08BEC92E00E9426146FE08BEC92E00E94261463E0F9
:2046600084E59AE00E9471138091E7029091E802892B09F430C26091030370910403809179
:204680000503909106030E94B31160ED77E080E090E00E946B070E94A31568EE73E080E097
:2046A00090E00E946B078091E7029091E802892B09F41BC26091FF027091000380910103D8
:2046C000909102030E94B31162E08DE59AE00E9471136091D1028BEC92E00E94261462E02F
:2046E0008BE59AE00E94711360E08BEC92E00E94261460E08BEC92E00E94261467E08BECE2
:2047000092E00E94261462E089E59AE00E9471138091E7029091E802892B09F4FDC1609196
:2047200003037091040380910503909106030E94B31160ED77E080E090E00E946B07809129
:20474000E7029091E802892B09F4F0C16091FF027091000380910103909102030E94B3116C
:2047600062E083E69AE00E9471136091D1028BEC92E00E94261462E081E69AE00E9471131C
:2047800060E08BEC92E00E94261460E08BEC92E00E94261467E08BEC92E00E94261462E0C1
:2047A0008FE59AE00E9471138091E7029091E802892B09F4D2C1609103037091040380918C
:2047C0000503909106030E94B31160ED77E080E090E00E946B070E94A31568EE73E080E056
:2047E00090E00E946B070E9428168091D5029091D602AC014051510957FF02C04F5F5F4F68
:20480000559547958091D3029091D402BC016051710977FF02C06F5F7F4F75956795F0E162
:20482000EF2EF12C00E110E02BE73AE08BEC92E00E9469100E94881468EE73E080E090E086
:204840000E946B0761E08BEC92E00E94E91568EE73E080E090E00E946B0760E08BEC92E0C4
:204860000E94E91568EE73E080E090E00E946B078E010F5F1F4FAAE07A2EB0EF6B2E85E0D1
:20488000282E312C412C512CC090D302D090D4020D2C000CEE08FF0831EF832E99249A9422
:2048A000A92CB92C62EFC6166FEFD606E606F6068CF00E94B626A7019601215F3F4F4F4F0A
:2048C0005F4F0E940E274B015C01AFE08A1A9108A108B108F801808261820E94B626A2017D
:2048E00091010E940E276B017C01FFEFCF1ADF0AEF0AFF0AD8011296CC9267E77AE082E2B9
:2049000092E00E94C905882D880C990B0E94C81662E77AE082E292E00E94C90580EF9FEF62
:204920000E94C8166CE67AE082E292E00E94C905F7FE1DC1C701B6010E94A5166AE571E0B6
:2049400082E292E00E944A167A940D5F1F4F71109BCFE1E0F0E0EC0FFD1F7E96F8A3EF8FD7
:2049600090EF392E25E0422E512C612C712C0E9428168E010F5F1F4F6801D60111964C9126
:204980001197042E000C550B6C91062E000C770B80E1E82EF12C00E110E02BE73AE08BEC0A
:2049A00092E00E946910B3E0CB0ED11CEF8DF8A1EC15FD0511F70E94881468EC70E080E0AF
:2049C00090E00E946B078E010F5F1F4FD80111968C91119712969C911297890F11968C93C7
:2049E000082E000C990B2091D5023091D6028217930794F18090D3029090D402092C000CDC
:204A0000AA08BB0881EF9FEFAFEFBFEFB2EF8B16BFEF9B06AB06BB067CF00E94B626A50144
:204A20009401215F3F4F4F4F5F4F0E940E27DC01CB010F97A109B109F801808331820E94AC
:204A4000B626A30192010E940E276F5F7F4F8F4F9F4FD80112966C930D5F1F4FC016D106FD
:204A600009F0B4CF84CF8091E5029091E602892B31F080910803909109030E94FD09E0912F
:204A8000F902F091FA0290818091FE0280958923808388CDE091F902F091FA028081909158
:204AA000FE02892B8083A8CD8091E5029091E602892B31F080910803909109030E94FD0903
:204AC000E091F902F091FA0290818091FE02809589238083B0CDE091F902F091FA028081A0
:204AE0009091FE02892B8083D0CD8091E5029091E602892B31F080910803909109030E9480
:204B0000FD09E091F902F091FA0290818091FE02809589238083D8CDE091F902F091FA0232
:204B200080819091FE02892B808303CE8091E5029091E602892B31F08091080390910903AC
:204B40000E94FD09E091F902F091FA0290818091FE0280958923808303CEE091F902F09120
:204B6000FA0280819091FE02892B80832ECE2AE0B701A60182E292E00E945916DFCEA401C2
:204B80004C195D09EF8DF8A1EA19FB09FAA7E9A7002711270E191F091EA30DA3FEA7EDA7A5
:204BA0009501215031093EAB2DABBAA2A9A290E080E029A03AA019AA1AAA1BAA1CAA412C5A
:204BC000512C32018C01990F220B330B0FAB18AF29AF3AAF69A57AA5072E000C880B990B9E
:204BE0006BAF7CAF8DAF9EAFCA01550FAA0BBB0B23968CAF9DAFAEAFBFAF239787010F2CB5
:204C0000000C220B330B27960CAF1DAF2EAF3FAF27972DA93EA9221533050CF44ACBC3014B
:204C2000B2012FA938AD49AD5AAD0E940E278601020F131F69A97AA98BA99CA92BAD3CADF7
:204C40004DAD5EAD0E940E27B601620F731F23968CAD9DADAEADBFAD2397480E591E6A1EAC
:204C60007B1E29A93AA94BA95CA927968CAD9DADAEADBFAD2797280F391F4A1F5B1F29ABE2
:204C80003AAB4BAB5CAB601771072CF0962F872FB801092F182F061B170B98012F5F3F4F7C
:204CA00002E010E0A1018BEC92E00E94AF0E9FEF291A390AAECF82E391E09093CC028093CD
:204CC000CB028091E9029091EA02009711F00C94132808958F929F92AF92BF92CF92DF9238
:204CE000EF92FF92CF93DF93EC01688179818A819B81611571058105910521F464E279ED0E
:204D00008BE597E02DE133EF41E050E00E940E2749015A019B01AC01A7EAB1E40E942D274A
:204D20006B017C01ACEEB4EFA50194010E943B27C60ED71EE81EF91EF7FE06C081E0C81A2A
:204D4000D108E10880E8F80AC882D982EA82FB82C701B6019F77DF91CF91FF90EF90DF90B7
:204D6000CF90BF90AF909F908F9008958F929F92AF92BF92CF92DF92EF92FF9260910001A1
:204D8000709101018091020190910301611571058105910521F464E279ED8BE597E02DE119
:204DA00033EF41E050E00E940E2749015A019B01AC01A7EAB1E40E942D276B017C01ACEE1C
:204DC000B4EFA50194010E943B27C60ED71EE81EF91EF7FE06C081E0C81AD108E10880E8E3
:204DE000F80AC0920001D0920101E0920201F0920301C701B6019F77FF90EF90DF90CF908E
:204E0000BF90AF909F908F900895609300017093010180930201909303010895052E97FB81
:204E20001EF400940E94252757FD07D00E94402707FC03D04EF40C94252750954095309527
:204E400021953F4F4F4F5F4F089590958095709561957F4F8F4F9F4F08950E946227A59F4A
:204E6000900DB49F900DA49F800D911D11240895B7FF0C942D270E942D27821B930B0895DD
:204E8000A1E21A2EAA1BBB1BFD010DC0AA1FBB1FEE1FFF1FA217B307E407F50720F0A21BEC
:204EA000B30BE40BF50B661F771F881F991F1A9469F760957095809590959B01AC01BD0182
:204EC000CF010895A29FB001B39FC001A39F700D811D1124911DB29F700D811D1124911DD1
:204EE0000895EE0FFF1F0590F491E02D09940F931F93CF93DF938230910510F482E090E0F0
:204F0000E0910C03F0910D0330E020E0B0E0A0E0309799F42115310509F44AC0281B390B12
:204F200024303105D8F58A819B816115710589F1FB0193838283FE0111C040815181028190
:204F4000138148175907E0F04817590799F4109761F012960C93129713961C933296CF010A
:204F6000DF91CF911F910F91089500930C0310930D03F4CF2115310551F04217530738F0D4
:204F8000A901DB019A01BD01DF01F801C1CFEF01F9CF90930D0380930C03CDCFFE01E20F30
:204FA000F31F819391932250310939832883D7CF20910A0330910B03232B41F42091060126
:204FC0003091070130930B0320930A0320910401309105012115310541F42DB73EB74091AF
:204FE000080150910901241B350BE0910A03F0910B03E217F307A0F42E1B3F0B2817390798
:2050000078F0AC014E5F5F4F2417350748F04E0F5F1F50930B0340930A03819391939FCF1F
:20502000F0E0E0E09CCFCF93DF930097E9F0FC01329713821282A0910C03B0910D03ED01C3
:2050400030E020E01097A1F420813181820F931F20910A0330910B032817390709F061C048
:20506000F0930B03E0930A03DF91CF910895EA01CE17DF07E8F54A815B819E01411551052D
:20508000B1F7E901FB83EA8349915991C40FD51FEC17FD0761F4808191810296840F951FBA
:2050A000E90199838883828193819B838A83F0E0E0E012968D919C9113970097B9F52D916D
:2050C0003C911197CD010296820F931F20910A0330910B032817390739F6309751F51092C8
:2050E0000D0310920C03B0930B03A0930A03BCCFD383C28340815181840F951FC817D9079F
:2051000061F44E5F5F4F88819981480F591F518340838A819B81938382832115310509F0AF
:20512000B0CFF0930D03E0930C039ECFFD01DC01C0CF13821282D7CF81E090E0F8940C9438
:20514000A828DC0101C06D9341505040E0F7089515E0CCE7D5E004C0FE010E94712721963B
:20516000CD37D107C9F7F894FFCF0100000000000E038000000000008D06ED051A06DA0622
:205180004B0629063D06000000005B122E122516A70527121412051200000000230CED0521
:2051A00025168B116109A705A20F9F0EBB0EAF0EDE10A705010AE9156509AE09E80DCB0D89
:2051C000530DF40C0D0A0000FFFFFFFFFFFFFFFFFFFFFFFFFFFFFFFFFFFFFFFFFFFFFFFF70
:2051E000FFFFFFFFFFFFFFFFFFFFFFFFFFFFFFFFFFFFFFFFFFFFFFFFFFFFFFFFFFFFFFFFCF
:20520000FFFFFFFFFFFFFFFFFFFFFFFFFFFFFFFFFFFFFFFFFFFFFFFFFFFFFFFFFFFFFFFFAE
:20522000FFFFFFFFFFFFFFFFFFFFFFFFFFFFFFFFFFFFFFFFFFFFFFFFFFFFFFFFFFFFFFFF8E
:20524000FFFFFFFFFFFFFFFFFFFFFFFFFFFFFFFFFFFFFFFFFFFFFFFFFFFFFFFFFFFFFFFF6E
:207E0000112484B714BE81FFF0D085E08093810082E08093C00088E18093C10086E08093FC
:207E2000C20080E18093C4008EE0C9D0259A86E020E33CEF91E0309385002093840096BBAD
:207E4000B09BFECF1D9AA8958150A9F7CC24DD2488248394B5E0AB2EA1E19A2EF3E0BF2E79
:207E6000A2D0813461F49FD0082FAFD0023811F0013811F484E001C083E08DD089C0823404
:207E800011F484E103C0853419F485E0A6D080C0853579F488D0E82EFF2485D0082F10E0A0
:207EA000102F00270E291F29000F111F8ED068016FC0863521F484E090D080E0DECF84364D
:207EC00009F040C070D06FD0082F6DD080E0C81680E7D80618F4F601B7BEE895C0E0D1E0ED
:207EE00062D089930C17E1F7F0E0CF16F0E7DF0618F0F601B7BEE89568D007B600FCFDCF1A
:207F0000A601A0E0B1E02C9130E011968C91119790E0982F8827822B932B1296FA010C016F
:207F200087BEE89511244E5F5F4FF1E0A038BF0751F7F601A7BEE89507B600FCFDCF97BE85
:207F4000E89526C08437B1F42ED02DD0F82E2BD03CD0F601EF2C8F010F5F1F4F84911BD0B8
:207F6000EA94F801C1F70894C11CD11CFA94CF0CD11C0EC0853739F428D08EE10CD085E9AE
:207F80000AD08FE07ACF813511F488E018D01DD080E101D065CF982F8091C00085FFFCCF0A
:207FA0009093C60008958091C00087FFFCCF8091C00084FD01C0A8958091C6000895E0E68F
:207FC000F0E098E1908380830895EDDF803219F088E0F5DFFFCF84E1DECF1F93182FE3DF47
:207FE0001150E9F7F2DF1F91089580E0E8DFEE27FF270994FFFFFFFFFFFFFFFFFFFF040425
:00000001FF
